:020000040800F2
:1000000000500020D518000895020008970200084B
:10001000990200089B0200089D02000800000000F1
:100020000000000000000000000000009F02000827
:10003000A102000800000000A3020008A5020008B9
:100040001D1900081D1900081D1900081D190008B8
:100050001D1900081D190008AD020008B7020008AC
:100060001D1900081D1900081D1900081D19000898
:100070001D1900081D1900081D1900081D19000888
:100080001D1900081D1900081D1900081D19000878
:100090001D1900081D1900081D1900081D19000868
:1000A0001D1900081D1900081D1900081D19000858
:1000B0001D1900081D1900081D1900081D19000848
:1000C0001D1900081D1900081D1900081D19000838
:1000D0001D1900081D1900081D1900081D19000828
:1000E0001D1900081D1900081D1900080000000056
:1000F0000000000000000000000000000000000000
:0C01000000000000000000005FF808F1A3
:10010C0010B5054C237833B9044B13B10448AFF345
:10011C0000800123237010BD5C0000200000000053
:10012C003823000808B5034B1BB103490348AFF350
:10013C00008008BD0000000060000020382300088B
:10014C00034613F8012B002AFBD1181A013870470B
:10015C00014B01221A7070478000002030B589B025
:10016C000446002001F0EEF905210A2001F0B2FA54
:10017C000A2206A9204601F0E4FB06A8FFF7E0FFDF
:10018C00C0F10800C00020EAE070052100F0F80082
:10019C0001F0A0FA174B012500950ECB06A801F033
:1001AC0081FA009528236C221946142001F098FA44
:1001BC002D21342001F08EFA0F4B00950ECB0F48F9
:1001CC0001F070FA3A21002001F084FA0C4A82FB0B
:1001DC000432E417C4EB62120A4902A801F0B4FB22
:1001EC00094B00950ECB02A801F05CFA01F0B8F9AE
:1001FC0009B030BD88230008942300085023000860
:10020C006766666654230008A023000872B6FEE7F2
:10021C0000B591B02822002106A801F0F9FB0023BB
:10022C0001930293039304930593022306930123F2
:10023C000A9310230B9306A800F0D2F868B90F2389
:10024C0001930021029103910491059101A800F002
:10025C00F9FA20B911B05DF804FBFFF7D7FFFFF7EF
:10026C00D5FF08B500F06EF8FFF7D2FF01F0A4F847
:10027C0001F0C0F801F0E2F801F014F901F090FA85
:10028C0001F0F2FA002008BDFEE7FEE7FEE7FEE70C
:10029C00FEE770477047704708B500F065F808BD79
:1002AC0008B5012000F0A8FC08BD08B5022000F03C
:1002BC00A3FC08BD82B00E4B9A6942F001029A6110
:1002CC009A6902F001020092009ADA6942F08052B7
:1002DC00DA61DB6903F080530193019B054A536893
:1002EC0023F0E06343F08063536002B0704700BFBB
:1002FC00001002400000014010B504460E4B1A7865
:10030C004FF47A73B3FBF2F30C4A1068B0FBF3F0C2
:10031C0000F0E4FC68B90F2C01D901200AE000229E
:10032C0021464FF0FF3000F0BBFC054B1C60002059
:10033C0000E0012010BD00BF0000002008000020DC
:10034C000400002008B5074A136843F0100313603B
:10035C00032000F093FC0F20FFF7CEFFFFF7AAFF5E
:10036C00002008BD00200240034A1168034B1B7893
:10037C000B441360704700BF780000200000002081
:10038C00014B1868704700BF7800002038B5044650
:10039C00FFF7F6FF0546B4F1FF3F02D0044B1B7884
:1003AC001C44FFF7EDFF401BA042FAD338BD00BF41
:1003BC000000002082B0084B1B68084AA2FB0323F4
:1003CC005B0A00FB03F3019300BF019B5A1E0192D1
:1003DC00002BF9D102B0704708000020D34D6210F9
:1003EC00002800F0F18170B582B00446036813F068
:1003FC00010F2CD0994B5B6803F00C03042B1DD020
:10040C00964B5B6803F00C03082B12D06368B3F5B2
:10041C00803F41D0002B55D103F1804303F50433C9
:10042C001A6822F480321A601A6822F480221A6048
:10043C0037E08A4B5B6813F4803FE7D0874B1B682F
:10044C0013F4003F03D06368002B00F0BF812368D6
:10045C0013F0020F75D0814B5B6813F00C0F5FD05B
:10046C007E4B5B6803F00C03082B54D02369002BE4
:10047C0000F08A807A4B01221A60FFF781FF054653
:10048C00764B1B6813F0020F75D1FFF779FF401BF9
:10049C000228F5D903209EE1704A136843F4803397
:1004AC001360636843B3FFF76BFF05466B4B1B6828
:1004BC0013F4003FCBD1FFF763FF401B6428F5D941
:1004CC00032088E1B3F5A02F09D0644B1A6822F4FD
:1004DC0080321A601A6822F480221A60E1E703F174
:1004EC008043A3F53C331A6842F480221A601A68E0
:1004FC0042F480321A60D4E7FFF742FF0546574BAF
:10050C001B6813F4003FA2D0FFF73AFF401B64288E
:10051C00F5D903205FE1514B5B6813F4803FA5D103
:10052C004E4B1B6813F0020F03D02369012B40F0D4
:10053C004F814A4A136823F0F803616943EAC10307
:10054C001360236813F0080F33D0A369002B5CD021
:10055C00434B0122C3F88024FFF712FF05463F4BA3
:10056C005B6A13F0020F21D1FFF70AFF401B022830
:10057C00F5D903202FE1394A136823F0F803616998
:10058C0043EAC1031360DCE7354B00221A60FFF726
:10059C00F7FE0546314B1B6813F0020FD1D0FFF765
:1005AC00EFFE401B0228F5D9032014E10120FFF7D0
:1005BC0001FF236813F0040F00F09680274BDB69D2
:1005CC0013F0805F34D1254BDA6942F08052DA6146
:1005DC00DB6903F080530193019B0125214B1B68C0
:1005EC0013F4807F26D0E368012B3DD0002B53D130
:1005FC0003F1804303F504331A6A22F001021A62F4
:10060C001A6A22F004021A6233E0154B0022C3F876
:10061C008024FFF7B5FE0546104B5B6A13F0020F02
:10062C00C7D0FFF7ADFE401B0228F5D90320D2E05E
:10063C000025D3E70B4A136843F480731360FFF76C
:10064C009FFE0646074B1B6813F4807FCBD1FFF748
:10065C0097FE801B6428F5D90320BCE000100240F3
:10066C0000004242007000405F4A136A43F00103ED
:10067C001362E36833B3FFF783FE06465A4B1B6ADB
:10068C0013F0020F2FD1FFF77BFE801B41F2883352
:10069C009842F3D903209EE0052B09D0524B1A6ADD
:1006AC0022F001021A621A6A22F004021A62E0E7CE
:1006BC004D4B1A6A42F004021A621A6A42F00102A5
:1006CC001A62D6E7FFF75CFE0646474B1B6A13F02F
:1006DC00020F08D0FFF754FE801B41F2883398427A
:1006EC00F3D9032077E0E5B9E369002B72D03E4AD9
:1006FC00526802F00C02082A56D0022B17D03B4B42
:10070C0000221A66FFF73CFE0446374B1B6813F0B9
:10071C00007F47D0FFF734FE001B0228F5D90320D9
:10072C0059E0314AD36923F08053D361DCE72F4B76
:10073C0000221A66FFF724FE05462B4B1B6813F0AC
:10074C00007F06D0FFF71CFE401B0228F5D90320C2
:10075C0041E0236AB3F5803F1AD023494B6823F458
:10076C007413226A606A024313434B601F4B0122CD
:10077C001A66FFF705FE04461B4B1B6813F0007F3F
:10078C000ED1FFF7FDFD001B0228F5D9032022E056
:10079C00154A536823F40033A1680B435360DCE71C
:1007AC00002018E0002016E0012B16D00E4B5B68E1
:1007BC0003F48031226A914211D103F47013626AFE
:1007CC0093420ED1002006E001207047012002E088
:1007DC00012000E0002002B070BD0120FBE70120E9
:1007EC00F9E70120F7E700BF001002400000424289
:1007FC000F4B5B6803F00C02082A01D00D487047C0
:10080C00C3F383420C49885C13F4803F0BD0084B34
:10081C005B68C3F34043094AD35C064A02FB00F011
:10082C00B0FBF3F07047064B03FB00F0704700BFC2
:10083C000010024000127A00602300085C230008BC
:10084C0000093D00002800F0A08070B50D4604465C
:10085C00524B1B6803F007038B420BD24F4A1368B1
:10086C0023F007030B431360136803F007038B4259
:10087C0040F08D80236813F0020F17D013F0040F93
:10088C0004D0474A536843F4E0635360236813F081
:10089C00080F04D0424A536843F460535360404AF3
:1008AC00536823F0F003A1680B435360236813F0E3
:1008BC00010F31D06368012B20D0022B25D0384A90
:1008CC00126812F0020F64D035494A6822F0030214
:1008DC0013434B60FFF754FD0646314B5B6803F046
:1008EC000C036268B3EB820F16D0FFF749FD801B37
:1008FC0041F288339842F0D9032045E0284A126827
:10090C0012F4003FE0D101203EE0254A126812F0BB
:10091C00007FD9D1012037E0204B1B6803F007037F
:10092C00AB420AD91D4A136823F007032B4313600B
:10093C00136803F00703AB422DD1236813F0040FA7
:10094C0006D0174A536823F4E063E1680B43536005
:10095C00236813F0080F07D0114A536823F460532F
:10096C00216943EAC1035360FFF742FF0C4B5B68FC
:10097C00C3F303130B4AD35CD8400B4B18600B4BDF
:10098C001868FFF7B9FC002070BD012070470120EA
:10099C00FAE70120F8E70120F6E700BF002002404B
:1009AC0000100240782300080800002004000020FA
:1009BC00014B1868704700BF0800002008B5FFF70E
:1009CC00F7FF044B5B68C3F30223034AD35CD840A4
:1009DC0008BD00BF001002407023000870B582B043
:1009EC000024A446A1E07E4DAB4214D00CD8A5F552
:1009FC008015AB420FD005F57025AB420BD0A5F599
:100A0C008015AB4210D106E0764DAB4203D005F514
:100A1C008035AB4208D18B68002B50D0012B49D0CC
:100A2C004261082400E0CC68BEF1FF0F49D80646AD
:100A3C004FEA8C0233680F25954023EA050304FA2C
:100A4C0002F2134333604B6813F0805F6BD0664B3C
:100A5C009A6942F001029A619B6903F001030193C8
:100A6C00019B4FEA9C02951C604B53F825600CF0DF
:100A7C000305AD000F23AB4026EA03065C4B9842FE
:100A8C0026D003F58063984200F08C8003F58063D8
:100A9C00984200F0898003F58063984216D00423B5
:100AAC0017E0CC680434BFE7CC680834BCE7CC68EA
:100ABC000C34B9E702610824B6E70024B4E7042437
:100ACC00B2E7061DACF108029200B3E7032300E085
:100ADC000023AB4033430232444D45F822304B687F
:100AEC0013F4801F62D0434A936843EA0E03936069
:100AFC004B6813F4001F5FD03E4AD36843EA0E03E1
:100B0C00D3604B6813F4003F5CD03A4A536843EA15
:100B1C000E0353604B6813F4803F59D0354A136869
:100B2C0043EA0E0313600CF1010C0B6833FA0CF260
:100B3C0054D0012202FA0CF203EA020E32EA030349
:100B4C00F1D14B68122B3FF64EAF122B3FF66CAF28
:100B5C0001A555F823F000BF230A0008330A00084A
:100B6C00B50A0008C70A0008350A0008350A00084B
:100B7C00350A0008350A0008350A0008350A00084D
:100B8C00350A0008350A0008350A0008350A00083D
:100B9C00350A0008350A0008350A0008AF0A0008B3
:100BAC00BB0A0008012394E7022392E7114A9368D9
:100BBC0023EA0E0393609BE70E4AD36823EA0E03E5
:100BCC00D3609EE70B4A536823EA0E035360A1E7F8
:100BDC00084A136823EA0E031360A4E702B070BD41
:100BEC0000002210000031100010024000000140F3
:100BFC00000801400004014008B5054B5B69034245
:100C0C0000D108BD024B5861FFF7A2FAF9E700BF0B
:100C1C0000040140002808DB0901C9B200F1604062
:100C2C0000F5614080F80013704700F00F000901D7
:100C3C00C9B2014B1954704714ED00E000B500F037
:100C4C000700C0F1070CBCF1040F28BF4FF0040CD7
:100C5C00031D062B0FD9C31E4FF0FF3E0EFA0CF0EE
:100C6C0021EA000199400EFA03FE22EA0E0241EA43
:100C7C0002005DF804FB0023EEE70000074AD3688E
:100C8C0023F4E0631B041B0C000200F4E06003433C
:100C9C0043F0BF6343F40033D360704700ED00E0D2
:100CAC0010B50446054BD868C0F30220FFF7C6FF09
:100CBC0001462046FFF7AEFF10BD00BF00ED00E07F
:100CCC00002807DB00F01F02400901239340024A71
:100CDC0042F82030704700BF00E100E00138B0F16D
:100CEC00807F0BD24FF0E0235861054AF02182F847
:100CFC0023100020986107221A6170470120704769
:100D0C0000ED00E003685A6912F4806F01D10020F5
:100D1C0070476FF480625A6100230363202280F8CD
:100D2C003D2080F83E30026C42F00402026480F8F0
:100D3C003C30012070472DE9F04106460C46174621
:100D4C0098463BE0FFF71CFB069BC01A404502D8B7
:100D5C00B8F1000F32D1012D18D033689B6924EA09
:100D6C0003039BB2B3FA83F35B099F4226D10023A2
:100D7C003363202286F83D2086F83E30326C42F0F8
:100D8C002002326486F83C30012027E033685B692E
:100D9C0024EA03039BB2B3FA83F35B09E5E73368F8
:100DAC005B6924EA030C1FFA8CFCBCFA8CFC4FEA3E
:100DBC005C1C674511D1B8F1FF3FC3D1C4F30745A3
:100DCC00012DECD033689B6924EA030C1FFA8CFCD0
:100DDC00BCFA8CFC4FEA5C1CEBE70020BDE8F08110
:100DEC002DE9F84305460E469046994653E01A689D
:100DFC0042F400721A602B686FF480625A6100230F
:100E0C002B63202285F83D2085F83E302A6C42F079
:100E1C0004022A6485F83C3001204AE0FFF7B0FA5E
:100E2C00A0EB0900404502D8B8F1000F33D1012FD7
:100E3C0017D02B689B6926EA03039BB2003B18BFB3
:100E4C00012343B300232B63202285F83D2085F832
:100E5C003E302A6C42F020022A6485F83C30012096
:100E6C0027E02B685B6926EA03039BB2003B18BFA3
:100E7C000123E6E72B689C6926EA0404A4B2003C33
:100E8C0018BF0124A4B12B685A6912F4806FAED13B
:100E9C00B8F1FF3FC2D1C6F30747012FEAD12B6847
:100EAC005C6926EA0404A4B2003C18BF0124E9E7FB
:100EBC000020BDE8F88370B504460D46164623683D
:100ECC005B6913F0800F21D12046FFF71BFFF8B9A7
:100EDC00B5F1FF3FF3D0FFF753FA801BA84201D8BE
:100EEC00002DECD123685B6913F0800FE7D1002350
:100EFC002363202284F83D2084F83E30226C42F09B
:100F0C002002226484F83C30012000E0002070BDF7
:100F1C000120FCE72DE9F04385B004460D469146CF
:100F2C001F46DDF830800D9E0368196841F480710E
:100F3C0019600096434600224FF00111FFF7FBFEAB
:100F4C0060B9236805F0FE051D613346424626490B
:100F5C002046FFF745FF68B1012008E023681B68B5
:100F6C0013F4807F02D04FF400732364032005B088
:100F7C00BDE8F0830023039323685A6903929B69AD
:100F8C000393039B324641462046FFF794FF30B94A
:100F9C00012F0FD123685FFA89F61E61E7E7236CF6
:100FAC00042B01D00120E2E72268136843F400739C
:100FBC001360F7E723684FEA19221A61324641465B
:100FCC002046FFF778FF20B923685FFA89F61E6187
:100FDC00CDE7236C042B01D00120C8E722681368ED
:100FEC0043F400731360F7E70200010070B5044688
:100FFC000D46164623685B6913F0040F21D1204679
:10100C00FFF780FEF8B9B5F1FF3FF3D0FFF7B8F961
:10101C00801BA84201D8002DECD123685B6913F02A
:10102C00040FE7D100232363202284F83D2084F8A9
:10103C003E30226C42F02002226484F83C300120C5
:10104C0000E0002070BD0120FCE77047002800F094
:10105C00CC8070B5044690F83D30002B77D024231B
:10106C0084F83D302268136823F001031360226872
:10107C00136843F4004313602268136823F400439D
:10108C001360FFF79BFC62685A4B9A4264D85A4B28
:10109C0098428CBF00230123002B40F0A8805749B5
:1010AC00A1FB00318B0C25686A6822F03F0242EAF2
:1010BC0091426A6021680A6A22F03F0266684D4DCF
:1010CC00AE424FD8013313430B622168CA6922F434
:1010DC004F4222F0FF026568464B9D424CD8431E9E
:1010EC006D00B3FBF5F3013340F6FC70034278D08E
:1010FC00C3F30B031A43CA6121680B6823F0C003C6
:10110C00E269206A024313430B6021688B6823F465
:10111C00034323F0FF032269E068024313438B600F
:10112C002168CB6823F0FF036269A0690243134373
:10113C00CB602268136843F0010313600020206425
:10114C00202384F83D30206384F83E0070BD80F885
:10115C003C30FFF77AFF82E7294B98428CBF002383
:10116C00012399E74FF4967505FB03F3254DA5FB79
:10117C0003539B090133A6E7A668BEB9431E05EBD2
:10118C00450CB3FBFCF30133C3F30B03B3FA83F34A
:10119C005B0943BBC6B9431E05EB4505B3FBF5F331
:1011AC000133C3F30B0343F40043A3E7431E05EBE6
:1011BC00850C0CEB8C0CB3FBFCF30133C3F30B036E
:1011CC00B3FA83F35B09E4E7431E05EB850505EBF6
:1011DC008505B3FBF5F30133C3F30B0343F4404331
:1011EC0088E7042386E7012384E701207047012068
:1011FC00ACE700BFA08601007F841E0083DE1B438A
:10120C00FF083D00D34D62102DE9F04383B0044636
:10121C000F46904699460C9EFFF7B2F8054694F897
:10122C003D00C0B2202803D0022003B0BDE8F083FB
:10123C000095192301224B492046FFF77CFD00281D
:10124C0040F0898094F83C30012B00F0868001231B
:10125C0084F83C3023681A6812F0010F03D11A6825
:10126C0042F001021A602268136823F400631360D1
:10127C00212384F83D30402384F83E30002323643E
:10128C000A9B6362BDF82C306385638D2385364BD6
:10129C00E362019500964B46424639462046FFF7DD
:1012AC0039FE00285BD1238D002B35D02A463146E0
:1012BC002046FFF700FE20BB626A236812781A6191
:1012CC00626A531C6362218D013989B22185638D59
:1012DC009BB2013B9BB263852368586910F0040FE5
:1012EC00E1D00029DFD052781A61636A013363625E
:1012FC00238D013B2385638D9BB2013B9BB26385A0
:10130C00D1E7236C042B01D001208EE722681368EF
:10131C0043F400731360F7E72A4631462046FFF783
:10132C0065FE50B1236C042B01D001207DE72268AF
:10133C00136843F400731360F7E72268136843F4EF
:10134C0000731360202384F83D30002384F83E3072
:10135C0084F83C3069E7022067E7022065E701204A
:10136C0063E700BF020010000000FFFF70470000A1
:10137C0010B503460C4A0D490D48006840B10C48A5
:10138C0000680344521A934206D8094A136010BDF0
:10139C000748084C0460F2E700F042FB0C230360A2
:1013AC004FF0FF30F3E700BF0050002000040000B6
:1013BC007C0000203806002000B587B00B4B9A69E2
:1013CC0042F010029A619B6903F010030193019B98
:1013DC004FF400530293012303930223059302A9B4
:1013EC000348FFF7FBFA07B05DF804FB001002405E
:1013FC000010014000B587B00D4B9A6942F0040211
:10140C009A619B6903F004030193019B01230293EE
:10141C00084A039204930223059302A90648FFF796
:10142C00DDFA0620FFF74CFC07B05DF804FB00BFAB
:10143C0000100240000021100008014000B585B0EA
:10144C0002230093064A01920393029369460548CE
:10145C00FFF7C4FA0720FFF733FC05B05DF804FB77
:10146C00000011100008014000B587B00B4B9A69C1
:10147C0042F008029A619B6903F008030193019BF7
:10148C00C0230293122303930323059302A9044858
:10149C00FFF7A4FA07B05DF804FB00BF0010024090
:1014AC00000C014000B583B00D4BDA6942F4001218
:1014BC00DA61DB6903F400130193019BFFF7D4FF9E
:1014CC000848094B0360094B436000238360C360E9
:1014DC004FF480430361FFF7B9FD03B05DF804FBE3
:1014EC00001002408800002000540040A08601003B
:1014FC0000B587B08DF817004FF0FF33029301232E
:10150C0001930DF117020092002278210248FFF797
:10151C007BFE07B05DF804FB8800002000B585B0A9
:10152C004FF0FF33029389B20191009001234022C6
:10153C0078210348FFF768FE05B05DF804FB00BF97
:10154C008800002008B530B900214FF480620348B0
:10155C0000F05EFA08BDFF21F7E700BFE4000020B1
:10156C0010B5002412E0A4F15000C0B2FFF7C0FF88
:10157C000020FFF7BDFF1020FFF7BAFF80210548C0
:10158C0000EBC410FFF7CAFF0134E4B2072CEAD910
:10159C0010BD00BFE400002010F0800F1ED13F29C9
:1015AC001CD810B4012A0ED0CB0800EBC3100C4C85
:1015BC00225C01F0070101238B40DB435BB213403B
:1015CC00235410BC7047CB0800EBC310044C235CB5
:1015DC0001F007018A4013432354F2E7704700BF20
:1015EC00E40000202DE9F04784B0814604A800E90E
:1015FC000E009DF83080A9F12003DBB25E2B46D89B
:10160C00039B83B1A9F120029E5C254B1B883344BC
:10161C00802B40DC224B5B889DF805A05344402B6B
:10162C003BDC002522E09DF80460EEE71C4B18889B
:10163C00598829442044B8FA88F25209C9B2C0B278
:10164C00FFF7AAFF0134A6420FD907FA04F313F4EB
:10165C00004FEBD0124B188859882944204442463D
:10166C00C9B2C0B2FFF798FFECE70135AA4508D91B
:10167C00A9F1200303FB0A53029A32F813700024D9
:10168C00E1E7074B1A8816441E80484600E000200C
:10169C0004B0BDE8F0870020FAE70020F8E700BFAF
:1016AC00DC00002030B587B0044606A800E90E0027
:1016BC009DF8285000E00134207848B1009506AB25
:1016CC0013E90E00FFF78EFF034620788342F2D019
:1016DC0007B030BD014B188059807047DC000020EA
:1016EC002DE9F04F83B004460E4691469B469DF87B
:1016FC0030A0A2EB0008B8F1000FB8BFC8F1000889
:10170C005F1A002FB8BF7F4282420DD9012300938C
:10171C00B3450DD901230193A8EB07055246594651
:10172C004846FFF739FF1BE04FF0FF330093EFE71C
:10173C004FF0FF330193EFE7524631462046FFF757
:10174C002BFF6B007A42B2EB450F03DAED1B009ACC
:10175C001444E4B2984503DD4544019B1E44F6B2A3
:10176C004C45E9D15E45E7D103B0BDE8F08F10B52B
:10177C0004468120FFF7BCFE2046FFF7B9FE10BDE2
:10178C0008B530B1054B01225A71AF20FFF7B0FEFE
:10179C0008BD024B00225A71AE20F7E7DC00002096
:1017AC0008B56420FEF7F2FD0020FFF7E9FF2020CA
:1017BC00FFF79EFE0020FFF79BFEB020FFF798FE80
:1017CC00C820FFF795FE0020FFF792FE1020FFF7D0
:1017DC008FFE4020FFF78CFEFF20FFF7C8FFA120F3
:1017EC00FFF786FEA620FFF783FEA820FFF780FEFA
:1017FC003F20FFF77DFEA420FFF77AFED320FFF7F2
:10180C0077FE0020FFF774FED520FFF771FEF02065
:10181C00FFF76EFED920FFF76BFE2220FFF768FE64
:10182C00DA20FFF765FE1220FFF762FEDB20FFF7E0
:10183C005FFE2020FFF75CFE8D20FFF759FE142081
:10184C00FFF756FE0120FFF79BFF0020FFF77AFE03
:10185C00FFF786FE034B00221A805A8001221A7170
:10186C0008BD00BFDC00002008B519E0FEF788FDBC
:10187C00114B1B68C01AB0F57A7F0DD3FEF780FDB3
:10188C000D4B18600D48002101600D4A1368C3EB25
:10189C0003139B0003601160084B1868FEF75EFC95
:1018AC00084B1B78002BE1D0064B00221A70044A1F
:1018BC00136801331360D9E7E8040020E404002026
:1018CC008400002080000020FFF750FD0B480C49DD
:1018DC000C4A002302E0D458C4500433C4188C4280
:1018EC00F9D3094A094C002301E013600432A242E7
:1018FC00FBD300F09BF8FEF7B4FC7047000000200F
:10190C005C000020AC4A00085C000020340600207B
:10191C00FEE7931E222B10B50C4604D900231C465F
:10192C000B70204610BD0A2A09D1002807DA2D2396
:10193C000B7001214042214400F028F8F1E700210E
:10194C00F9E7FFF7E6BF00000EB46FF0004110B5E9
:10195C0000249DB01FAB029006900791049109489A
:10196C00094953F8042B0591006802A901931B94B3
:10197C0000F0ECF8029B1C701DB0BDE8104003B0E9
:10198C00704700BF0C0000200802FFFFF0B58BB0C1
:10199C0005460B466E461D4C04F1200C374620685C
:1019AC006168083403C764453E46F7D12179206845
:1019BC003971911E222938604FF0000104D9197039
:1019CC000B4618460BB0F0BD581E8446B5FBF2F71B
:1019DC0002FB175628366E4416F8286C0C460CF889
:1019EC00016F2E46B2423D4601F10101EED90022B3
:1019FC005A541919A51AAA42E3DA10F8015F0E78A5
:101A0C000132067001F80159F4E700BF444A00089E
:101A1C0003460244934200D1704703F8011BF9E7D7
:101A2C00014B1868704700BF0C00002070B50026F1
:101A3C000C4D0D4C641BA410A64209D100F076FC91
:101A4C0000260A4D0A4C641BA410A64205D170BD99
:101A5C0055F8043B98470136EEE755F8043B984798
:101A6C000136F2E7A44A0008A44A0008A44A000878
:101A7C00A84A0008704770470A44914200F1FF33AE
:101A8C0000D1704710B511F8014B914203F8014F8A
:101A9C00F9D110BD2DE9F0471F468E688246BE4233
:101AAC000C4690460B682DD8B1F90C2012F4906FAF
:101ABC0026D06569096905EB4505A3EB010905EB22
:101ACC00D5757B1C4B446D109D4238BF1D4653058C
:101ADC0027D5294600F058F9064660B34A462169D5
:101AEC00FFF7CAFFA38923F4906343F08003A3811B
:101AFC0026614E4426603E466561A5EB0905A5604E
:101B0C00BE4200D93E4632464146206800F086FB74
:101B1C000020A3689B1BA360236833442360BDE8AB
:101B2C00F0872A4600F04CFB06460028E0D15046D0
:101B3C00216900F0ABFB0C23CAF80030A3894FF0ED
:101B4C00FF3043F04003A381E9E700002DE9F04F9B
:101B5C0098468B8907461B060D4614469DB010D53A
:101B6C000B6973B9402100F00FF92860286130B976
:101B7C000C233B604FF0FF301DB0BDE8F08F4023CD
:101B8C006B610023099320238DF8293030234FF00B
:101B9C000109CDF80C80DFF898818DF82A302346A6
:101BAC009A4613F8012B0AB1252AF9D1BAEB040B8A
:101BBC000BD05B46224629463846FFF76BFF0130B7
:101BCC0000F0A780099A5A4409929AF80030002B29
:101BDC0000F09F8000234FF0FF32CDE905230AF17E
:101BEC00010A049307938DF853301A935446052237
:101BFC0014F8011B4E4800F03BFB049AD8B9D006F0
:101C0C0044BF20238DF85330110744BF2B238DF88C
:101C1C0053309AF800302A2B15D0544600204FF040
:101C2C000A0C079A214611F8013B303B092B4BD982
:101C3C00B0B1079214E0A0EB080309FA03F31343C5
:101C4C00A2460493D2E7039B191D1B680391002B3A
:101C5C00BBBF5B4242F0020207930793B8BF0492EA
:101C6C0023782E2B0AD163782A2B32D1039B023492
:101C7C001A1D1B68039243EAE3730593DFF8B4A0C3
:101C8C0003225046217800F0F3FA38B14022049B2D
:101C9C00A0EB0A00824013430134049314F8011B97
:101CAC00062225488DF8281000F0E2FA002836D0DC
:101CBC00224B1BBB039B073323F00703083303930F
:101CCC00099B334409936AE70C4601200CFB023252
:101CDC00A8E700234FF00A0C19460134059320465F
:101CEC0010F8012B303A092A03D9002BC6D00591E4
:101CFC00C4E7044601230CFB0121F0E703AB00937E
:101D0C002A4638460E4B04A9AFF30080421C064607
:101D1C00D6D1AB895B063FF52DAF09982CE703AB09
:101D2C0000932A463846064B04A900F01FF9EDE74C
:101D3C00694A00086F4A0008734A00080000000056
:101D4C00A11A000870B50F4E0C463168054611B942
:101D5C0000F07EFA30602146284600F079FA431CE8
:101D6C0003D14FF0FF34204670BDC41C24F0030493
:101D7C00A042F8D0211A284600F06AFA0130F2D1BC
:101D8C00EFE700BF280600202DE9F843CD1C25F015
:101D9C00030508350C2D38BF0C25002D064601DB3C
:101DAC00A94204D90C2333600020BDE8F883DFF886
:101DBC00D48000F0F9F9D8F800301C4644BB294611
:101DCC003046FFF7BFFF431C044658D1D8F80040FB
:101DDC002746002F43D1002C4BD023683946304680
:101DEC0004EB030900F034FA814542D121683046F6
:101DFC006D1A2946FFF7A6FF01303AD023682B4411
:101E0C002360D8F800305A6862BBC8F800700FE045
:101E1C002268521B20D40B2A17D96119A3422560C2
:101E2C0018BF5960636808BFC8F8001062514B6056
:101E3C00304600F0BFF904F10B00231D20F0070021
:101E4C00C21A1CBF1B1AA350AFE76268A3420CBF97
:101E5C00C8F800205A60EBE723466468AEE73C46BE
:101E6C007F68B6E71A465B68A342FBD10023536038
:101E7C00DEE70C233046336000F09CF994E70560F4
:101E8C00D6E700BF2C0600202DE9F04716469846F1
:101E9C008A680B6907469342B8BF1346336091F8C2
:101EAC0043200C46DDF820900AB1013333602368DF
:101EBC00990642BF336802333360256815F0060576
:101ECC0006D104F1190AE36832689B1AAB422BDC89
:101EDC0094F843302268003B18BF0123920630D49B
:101EEC004146384604F14302C847013023D02368E9
:101EFC00226903F00603042B14BF002533684FF04E
:101F0C00000608BFE56804F11A0408BFED1A54F87E
:101F1C00123C08BF25EAE5759342C4BF9B1AED1825
:101F2C00B5421AD1002008E00123524641463846FA
:101F3C00C847013003D14FF0FF30BDE8F0870135C1
:101F4C00C1E73020E11881F843005A1C94F8451081
:101F5C002244023382F84310C2E701232246414651
:101F6C003846C8470130E6D00136D9E72DE9FF479E
:101F7C000F7E9146782F80460C469A460C9E01F1B6
:101F8C00430207D8622F0AD8002F00F0D180582FB7
:101F9C0000F0B88004F1420684F842703AE0A7F1F0
:101FAC006303152BF6D801A151F823F0112000087A
:101FBC0025200008A11F0008A11F0008A11F000870
:101FCC00A11F000825200008A11F0008A11F000860
:101FDC00A11F0008A11F0008232100084F200008A2
:101FEC00DD200008A11F0008A11F000845210008E2
:101FFC00A11F00084F200008A11F0008A11F000806
:10200C00E520000833681A1D1B68326004F1420693
:10201C0084F8423001239CE033682068191D31603C
:10202C00060601D51D6803E04506FBD5B3F9005043
:10203C00002D03DA2D236D4284F843300A235848CF
:10204C0011E021683368080653F8045B02D4490692
:10205C0048BFADB26F2F336014BF0A23082350481A
:10206C00002184F843106668002EA66005DB216809
:10207C002E4321F0040121604BD01646B5FBF3F141
:10208C0003FB1157C75D06F8017D2F46BB420D4679
:10209C00F4D9082B0BD12368DF0708D523696168B5
:1020AC009942DEBF302306F8013C06F1FF36921B45
:1020BC0022614B4621464046CDF800A003AAFFF70B
:1020CC00E3FE01304AD14FF0FF3004B0BDE8F08799
:1020DC00236843F0200323607827324884F8457046
:1020EC00236831681F0651F8045B02D45F0648BFB1
:1020FC00ADB23160D90744BF43F0200323601DB15A
:10210C001023ADE72648E9E7236823F0200323607A
:10211C00F6E71646BDE733682568181D616930601F
:10212C002E061B6801D5196002E06806FBD51980E4
:10213C00002316462361BCE7336800211A1D326068
:10214C001E686268304600F093F808B1801B60602E
:10215C0063682361002384F84330AAE7324649467A
:10216C0040462369D0470130ADD023689B0713D478
:10217C00E068039B9842B8BF1846A6E70123324695
:10218C0049464046D04701309DD00135E36803995C
:10219C005B1AAB42F2DCEBE7002504F11906F5E71C
:1021AC007A4A00088B4A00080148FFF763BC00BF5D
:1021BC00240600200148FFF75EBC00BF2406002067
:1021CC002DE9F041074614460D4621B91146BDE8EC
:1021DC00F041FFF7D9BD2AB900F058F8254628463A
:1021EC00BDE8F08100F09AF88442064602D8B4EBC0
:1021FC00500FF4D821463846FFF7C6FD804608B983
:10220C004546ECE7B4422246294628BF3246FFF742
:10221C0033FC2946384600F039F8F1E7884210B50E
:10222C0001EB020402D98442234607D8431EA14283
:10223C0008D011F8012B03F8012FF8E701460244EE
:10224C008A4200D110BD13F8014D02F8014DF7E799
:10225C0038B50023054D044608462B60FFF788F877
:10226C00431C02D12B6803B1236038BD300600201B
:10227C00034610B5C9B202449342184601D100205E
:10228C0003E0047801338C42F6D110BD38B5054615
:10229C00002940D051F8043C0C1F002BB8BFE418A7
:1022AC00FFF782FF1C4A136833B963601460284639
:1022BC00BDE83840FFF77EBFA34208D9206821183B
:1022CC008B4201BF19685B6809182160EDE71A465B
:1022DC005B680BB1A342FAD911685018A0420BD11C
:1022EC0020680144501883421160E0D118685B6883
:1022FC00084410605360DAE702D90C232B60D6E750
:10230C00206821188B4201BF19685B68091821608D
:10231C0063605460CBE738BD2C06002051F8043CB8
:10232C00181F002BBCBF0B58C0187047F8B500BF66
:10233C00F8BC08BC9E467047F8B500BFF8BC08BC9A
:04234C009E467047F2
:1023500052504D007E25642525000000010200003A
:1023600002030405060708090A0B0C0D0E0F1010D6
:102370000000000001020304000000000000000053
:102380000102030406070809101A00009C2900082E
:10239000000000000B120000E83C000800000000F4
:1023A00006080000AC230008000000000000000048
:1023B00000000000000000000000000000200020DD
:1023C00000200020002000000020000000500050ED
:1023D000005000000000000000000000005000500D
:1023E00000F8005000F80050005000000020007875
:1023F00000A00070002800F00020000000C000C80D
:10240000001000200040009800180000004000A0CC
:1024100000A0004000A800900068000000300030DC
:10242000002000400000000000000000001000201C
:10243000004000400040002000100000004000204C
:10244000001000100010002000400000002000A834
:10245000007000F8007000A80020000000000020BC
:10246000002000F800200020000000000000000014
:1024700000000000003000300020000000000000DC
:10248000000000F800000000000000000000000054
:1024900000000000000000300030000000000008D4
:1024A0000010002000400080000000000070008844
:1024B000009800A800C8008800700000002000609C
:1024C0000020002000200020007000000070008824
:1024D000000800700080008000F8000000F800088C
:1024E000001000300008008800700000001000306C
:1024F0000050009000F800100010000000F800806C
:1025000000F000080008008800700000003800405B
:10251000008000F0008800880070000000F80008CB
:1025200000080010002000400080000000700088BB
:10253000008800700088008800700000007000882B
:10254000008800780008001000E000000000000093
:10255000002000000020000000000000000000003B
:1025600000200000002000200040000000080010B3
:1025700000200040002000100008000000000000C3
:1025800000F8000000F800000000000000400020FB
:1025900000100008001000200040000000700088BB
:1025A00000080030002000000020000000700088BB
:1025B00000A800B800B000800078000000200050A3
:1025C0000088008800F800880088000000F000887B
:1025D000008800F00088008800F00000007000888B
:1025E00000800080008000880070000000F00088FB
:1025F000008800880088008800F0000000F8008053
:10260000008000F00080008000F8000000F80080EA
:10261000008000F0008000800080000000780088CA
:102620000080008000980088007800000088008802
:10263000008800F8008800880088000000700020F2
:102640000020002000200020007000000038001052
:102650000010001000100090006000000088009042
:1026600000A000C000A00090008800000080008052
:10267000008000800080008000F80000008800D802
:1026800000A800A800A80088008800000088008832
:1026900000C800A80098008800880000007000882A
:1026A00000880088008800880070000000F0008822
:1026B000008800F00080008000800000007000882A
:1026C0000088008800A800900068000000F00088E2
:1026D000008800F000A000900088000000700088D2
:1026E00000800070000800880070000000F800A85A
:1026F000002000200020002000200000008800882A
:102700000088008800880088007000000088008829
:1027100000880088008800500020000000880088A1
:10272000008800A800A800A80050000000880088C9
:1027300000500020005000880088000000880088B9
:1027400000500020002000200020000000F80008B9
:10275000001000700040008000F800000078004089
:102760000040004000400040007800000000008071
:102770000040002000100008000000000078000861
:102780000008000800080008007800000020005041
:1027900000880000000000000000000000000000B1
:1027A000000000000000000000F800000060006071
:1027B00000200010000000000000000000000000E9
:1027C0000060001000700090007800000080008021
:1027D00000B000C8008800C800B000000000000081
:1027E0000070008800800088007000000008000869
:1027F0000068009800880098006800000000000051
:102800000070008800F800800070000000100028B0
:1028100000200070002000200020000000000000C8
:102820000070009800980068000800000080008098
:1028300000B000C800880088008800000020000068
:102840000060002000200020007000000010000048
:102850000010001000100090006000000080008058
:10286000009000A000C000A00090000000600020C8
:102870000020002000200020007000000000000068
:1028800000D000A800A800A800A8000000000000D8
:1028900000B000C800880088008800000000000028
:1028A00000700088008800880070000000000000B0
:1028B00000B000C800C800B00080000000000000A8
:1028C0000068009800980068000800000000000000
:1028D00000B000C800800080008000000000000000
:1028E000007800800070000800F000000020002048
:1028F00000F8002000200028001000000000000068
:10290000008800880088009800680000000000002F
:1029100000880088008800500020000000000000AF
:102920000088008800A800A80050000000000000F7
:1029300000880050002000500088000000000000C7
:10294000008800880078000800880000000000006F
:1029500000F800100020004000F8000000100020E7
:102960000020004000200020001000000020002077
:102970000020000000200020002000000040002077
:10298000002000100020002000400000004000A8AF
:102990000010000000000000000000000000000027
:1029A0000000000000000000000000000000000027
:1029B0000000000000000000000000000000000017
:1029C0000000000000000000000000000000000007
:1029D000E003E003E003E003E003E003E003E003DF
:1029E000C003C003C001C001C001C001C00100009C
:1029F00000000000E003E003E0030000000000002E
:102A0000000000003C1E3C1E3C1E3C1E3C1E3C1EAA
:102A10003C1E00000000000000000000000000005C
:102A200000000000000000000000000000000000A6
:102A30000000000000000000CE01CE03DE039E0374
:102A40009C039C07FF3FFF7F3807380F780F780FF4
:102A5000780EFFFFFFFFF01EF01CE01CE03CE03DA5
:102A6000E03900000000000000000000FC03FE0F41
:102A7000EE1FE01EE01EE01EE01EE01FE00FE0077C
:102A8000F003FC01FE01FE01FE01FE01FE01FE015C
:102A9000FE3DFC3FF00FE001E001000000000000FF
:102AA000033E07F78FE78EE79EE3BCE3B8E7F8E75E
:102AB000F0F7E03FC001FF03FF07F307F30FF31E3A
:102AC000F33CF338F3787FF03FE0000000000000B3
:102AD00000000000E007F80F780F781F781F781FBC
:102AE000780FF00FE00F801FC37FC3FBE7F3F7F110
:102AF000F7F0FFF07FF03EF87F7CFF3FEF1F000014
:102B00000000000000000000E003E003E003E00339
:102B1000E003C003C001000000000000000000004E
:102B200000000000000000000000000000000000A5
:102B30000000000000000000000000003F007C00DA
:102B4000F001E001C003C00780078007800F000F7D
:102B5000000F000F000F000F000F800F800780078D
:102B6000C007C003E001F0017C003F000F0000003F
:102B7000007E001FC007C003E001F001F000F0007C
:102B8000F800780078007800780078007800F80085
:102B9000F000F000F001E001C003C007001F007E5C
:102BA00000780000E003C003C001CE39FF3F7F3F43
:102BB00020037003F807780F3C1F38060000000060
:102BC0000000000000000000000000000000000005
:102BD00000000000000000000000000000000000F5
:102BE00000000000C001C001C001C001C001C0015F
:102BF000C001FFFFFFFFC001C001C001C001C00153
:102C0000C001000000000000000000000000000003
:102C100000000000000000000000000000000000B4
:102C20000000000000000000000000000000E003C1
:102C3000E003E003E003E001E001E001C001800304
:102C40000000000000000000000000000000000084
:102C5000000000000000FE3FFE3F000000000000FA
:102C60000000000000000000000000000000000064
:102C70000000000000000000000000000000000054
:102C80000000000000000000000000000000000044
:102C9000000000000000E003E003E003E0030000A8
:102CA00000000000000000000F000F001E001E00CA
:102CB0003C003C0078007800F000F000E001E0010A
:102CC000C003C00380078007000F000F001E001E16
:102CD000003C003C0078007800F00000F007F80F9E
:102CE0007C1F3E3E1E3C1F7C1F7C0F780F780F78A8
:102CF0000F780F780F780F781F7C1F7C1E3C3E3EAC
:102D00007C1FF80FF007000000000000000000002A
:102D1000F000F007F03FF03FF001F001F001F001AA
:102D2000F001F001F001F001F001F001F001F0011B
:102D3000F001F001F001FF3FFF3F00000000000044
:102D400000000000E00FF83F7C3C3C003E003E00ED
:102D50003E003C003C007C00F800F001E003C007AE
:102D60008007000F001E003E003CFE3FFE3F0000BB
:102D70000000000000000000F00FF81F7C1C3E0067
:102D80003E003E003C003C00F800F00FF80F7C00D5
:102D90003E001E001E001E001E003E007C1CF81F90
:102DA000E01F000000000000000000007800F800B4
:102DB000F800F801F803F807F807780F781E781E76
:102DC000783C78787878FFFFFFFF7800780078000B
:102DD000780078007800000000000000000000008B
:102DE000FC1FFC1FFC1F001E001E001E001E001EFC
:102DF000E01FF81FFC007C003E003E001E003E006D
:102E00003E003C007C1CF81FE01F0000000000009A
:102E100000000000FC01FE078E0F001F001E003E98
:102E2000003C003CF83DFC3F3E7F1F7E0F3C0F3CCA
:102E30000F3C0F3C0F3E1F1E3E1FFC0FF003000017
:102E40000000000000000000FF3FFF3FFF3F0F00B9
:102E50001E001E003C0038007800F000F000E00189
:102E6000E001C003C0038007800F800F000F001F28
:102E7000001F00000000000000000000F807FC0F29
:102E80003E1F1E1E1E3E1E3E1E1E3C1FF80FF0075C
:102E9000F80FFC1E3E3E1F3C1F7C0F7C0F7C1F3C2E
:102EA0003E3FFC1FF0070000000000000000000093
:102EB000F007F80F7C1E3E3C1E3C1F7C1F7C1F7CD5
:102EC0001F7C1F3C3F3EFF1FEF071F001E001E0020
:102ED0003E003C00F838F03FE01F0000000000001A
:102EE00000000000000000000000000000000000E2
:102EF000E003E003E003E003000000000000000046
:102F0000000000000000E003E003E003E003000035
:102F100000000000000000000000000000000000B1
:102F200000000000E003E003E003E0030000000015
:102F300000000000000000000000E003E003E003E8
:102F4000E003E001E001E001C003800300000000B5
:102F5000000000000000000003000F003F00FC0024
:102F6000F003C00F003F00FE003FC00FF003FC0065
:102F70003F000F0003000000000000000000000000
:102F80000000000000000000000000000000000041
:102F900000000000FFFFFFFF000000000000FFFF37
:102FA000FFFF000000000000000000000000000023
:102FB0000000000000000000000000000000000011
:102FC00000E000F8007E801FE007F8017E001F008F
:102FD0007E00F801E007801F007E00F800E000009E
:102FE0000000000000000000F01FFC3F3E381F38CA
:102FF0001F381E001E003C007800F000E001C003F6
:10300000C003C007C007000000000000C007C007E1
:10301000C00700000000000000000000F803FE0FE1
:103020001E1F0F3E7F3CFF78EF79C773C7F38FF306
:103030008FF38FF39FF39FF3FF73FF7BF779003CD0
:103040001C1FFC0FF803000000000000000000003F
:10305000000000000000E003E003F007F007F007C5
:10306000780F780F7C0E3C1E3C1E3E3CFE3FFF3F1F
:103070001F780F780FF007F007F000000000000045
:1030800000000000000000000000F83FFC3F3E3C54
:103090001E3C1E3C1E3C3E3C7C3CF03FF83F7E3CD0
:1030A0001F3C1F3C0F3C0F3C1F3CFE3FF83F000005
:1030B0000000000000000000000000000000FF0110
:1030C000FF07871F003E003C007C007800780078F6
:1030D00000780078007C007C003E003F831FFF07E3
:1030E000FF010000000000000000000000000000E0
:1030F0000000F07FFC7F7E781F781F780F780F78B4
:103100000F780F780F780F780F780F781F781E7868
:103110007E78F87FE07F00000000000000000000E3
:10312000000000000000FF3FFF3F003E003E003E69
:10313000003E003E003EFE3FFE3F003E003E003EA1
:10314000003E003E003EFF3FFF3F00000000000049
:1031500000000000000000000000FF1FFF1F001E15
:10316000001E001E001E001E001EFF1FFF1F001E6F
:10317000001E001E001E001E001E001E001E00007D
:103180000000000000000000000000000000FE033E
:10319000FF0F871F003E007C007C007800F800F8DD
:1031A0007FF87FF80F780F7C0F7C0F3E8F1FFF0F8B
:1031B000FE0300000000000000000000000000000E
:1031C00000001F7C1F7C1F7C1F7C1F7C1F7C1F7CC2
:1031D0001F7CFF7FFF7F1F7C1F7C1F7C1F7C1F7C51
:1031E0001F7C1F7C1F7C000000000000000000000E
:1031F000000000000000FC3FFC3FE003E003E003B0
:10320000E003E003E003E003E003E003E003E003A6
:10321000E003E003E003FC3FFC3F0000000000008F
:1032200000000000000000000000FC1FFC1F7C00EC
:103230007C007C007C007C007C007C007C007C00AE
:103240007C007C0078007800F838F03FC03F000038
:1032500000000000000000000000000000001F3C13
:103260001E3C3C3C783CF03CE03DE03FC03F803FB2
:10327000C03FE03FF03DF03C783C7C3C3E3C1F3C96
:103280000F3C0000000000000000000000000000F3
:103290000000003E003E003E003E003E003E003E7C
:1032A000003E003E003E003E003E003E003E003E2E
:1032B000003EFC3FFC3F000000000000000000005A
:1032C0000000000000001FF81FFC1FFC3FFE3FFE37
:1032D0003FFE7FFF77FF77FFF7F7E7F7E7F3E7F3C7
:1032E000C7F307F007F007F007F000000000000048
:1032F000000000000000000000000F7C0F7C0F7E2B
:103300000F7F0F7F8F7F8F7FCF7FEF7BEF79FF79ED
:10331000FF78FF787F783F783F781F781F7800002C
:103320000000000000000000000000000000F007A6
:10333000FC1F3E3E1F7C0F780F780FF80FF80FF838
:103340000FF80FF80FF80F780F781F7C3E3EFC1F28
:10335000F007000000000000000000000000000076
:103360000000FC3FFF3F1F3E0F3E0F3E0F3E0F3E53
:103370001F3E3F3EFC3FF03F003E003E003E003E11
:10338000003E003E003E0000000000000000000083
:10339000000000000000F007FC1F3E3E1F7C0F787D
:1033A0000F780FF80FF80FF80FF80FF80FF80F78E5
:1033B0000F781F7C3E3EFC1FF8077C003F000F008B
:1033C00003000000000000000000F03FFC3F7E3CD6
:1033D0003E3C1E3C1E3C3E3C3C3CFC3CF03FE03F47
:1033E000F03DF83C7C3C3E3C1E3C1F3C0F3C00004A
:1033F0000000000000000000000000000000FC07CA
:10340000FE1F0E3E003C003C003C003EC01FF80F7B
:10341000FE037F001F000F000F001F203E3CFC3FFB
:10342000F01F00000000000000000000000000008D
:103430000000FFFFFFFFE003E003E003E003E00321
:10344000E003E003E003E003E003E003E003E00364
:10345000E003E003E00300000000000000000000C3
:103460000000000000000F7C0F7C0F7C0F7C0F7CA5
:103470000F7C0F7C0F7C0F7C0F7C0F7C0F7C0F7CF4
:103480001E3C1E3C3E3EFC1FF007000000000000FA
:103490000000000000000000000007F007F007F83F
:1034A0000F780F7C1E3C1E3C1E3E3C1E3C1F781FAE
:1034B000780FF80FF007F007F007E003E0030000D3
:1034C000000000000000000000000000000003E019
:1034D00003F003F007F0E7F3E7F3E7F3E773F77BB5
:1034E000F77FFF7F7F7F7F7F7E7F7E3F3E3E3E3E3A
:1034F0003E3E000000000000000000000000000050
:10350000000007F80F7C1E3E3E3E3C1FF80FF00700
:10351000E007E003E003F007F80F7C0F7C1E3E3C61
:103520001F780F780FF0000000000000000000007E
:1035300000000000000007F807780F7C1E3C1E3ECC
:103540003C1F780FF80FF007E003E003E003E0030F
:10355000E003E003E003E003E003000000000000FC
:1035600000000000000000000000FF7FFF7F0F0050
:103570001F003E007C00F800F000E001E003C007FF
:10358000800F000F001E003E007CFF7FFF7F0000C9
:103590000000000000000000FF0780078007800790
:1035A00080078007800780078007800780078007E3
:1035B00080078007800780078007800780078007D3
:1035C000800780078007FF07FF070000007800786A
:1035D000003C003C001E001E000F000F800780070B
:1035E000C003C003E001E001F000F00078007800C3
:1035F0003C003C001E001E000F000F0007000000F2
:10360000F07FF000F000F000F000F000F000F000BB
:10361000F000F000F000F000F000F000F000F0002A
:10362000F000F000F000F000F000F000F000F07F9B
:10363000F07F0000C000C001C001E003E003F0071C
:10364000F0077807780F380F3C1E3C1E1E3C1E3CCE
:103650000F380F780778000000000000000000001D
:10366000000000000000000000000000000000005A
:10367000000000000000000000000000000000004A
:10368000000000000000000000000000000000003A
:103690000000FFFFFFFF000000000000F00000003E
:1036A000000000000000000000000000000000001A
:1036B000000000000000000000000000000000000A
:1036C00000000000000000000000000000000000FA
:1036D000000000000000000000000000F80FFC3FA8
:1036E0007C3C3E003E003E00FE07FE1F3E3E3E7C10
:1036F0003E783E7C7E7CFF3FCF1F00000000000034
:1037000000000000003C003C003C003C003C003C51
:10371000F83DFE3F3E3F1F3E0F3C0F3C0F3C0F3C31
:103720000F3C0F3C1F3C1E3C3E3FFC3FF03B00006B
:103730000000000000000000000000000000000089
:1037400000000000FE03FF0F871F003E003E003C0C
:10375000007C007C007C003C003E003E871FFF0F89
:10376000FE03000000000000000000001F001F001A
:103770001F001F001F001F00FF07FF1F3F3E1F3CD1
:103780001F7C1F7C1F7C1F781F781F7C1F7C3F3C89
:103790007F3EFF1FDF0F0000000000000000000060
:1037A000000000000000000000000000F803FC0F13
:1037B0003E1F1E3E1F3C1F7CFF7FFF7F007C007C66
:1037C000003C003E071FFF0FFE030000000000004A
:1037D00000000000FF01E103C003C007C007C007ED
:1037E000FF7FFF7FC007C007C007C007C007C00733
:1037F000C007C007C007C007C007C007C007000058
:1038000000000000000000000000000000000000B8
:1038100000000000EF07FF1F7F3E1F3C1F7C1F7C46
:103820001F781F781F781F7C1F7C3F3C7F3EFF1F47
:10383000DF0F1E001E001E007C38F83F003C003CDD
:10384000003C003C003C003CFC3DFE3F9E3F1F3FD7
:103850001F3E1F3C1F3C1F3C1F3C1F3C1F3C1F3C8E
:103860001F3C1F3C1F3C0000000000000000000047
:10387000F001F0010000000000000000E07FE07FA8
:10388000E001E001E001E001E001E001E001E00130
:10389000E001E001E001E001E001000000000000C3
:1038A00000000000F800F800000000000000000028
:1038B000F83FF83FF800F800F800F800F800F800CA
:1038C000F800F800F800F800F800F800F800F80038
:1038D000F800F000F071E07F003C003C003C003C50
:1038E000003C003C1F3C3E3C7C3CF83CF03DE03D55
:1038F000C03FC03FE03FF03DF83C7C3C3E3C1F3CBD
:103900001F3C00000000000000000000F07FF001FC
:10391000F001F001F001F001F001F001F001F0011F
:10392000F001F001F001F001F001F001F001F0010F
:10393000F001F001F00100000000000000000000B4
:103940000000000000000000000000009EF7FFFFE4
:10395000FFFFFFFFE7FBE7F9C7F1C7F1C7F1C7F1C9
:10396000C7F1C7F1C7F1C7F1C7F1000000000000BF
:103970000000000000000000000000000000000047
:10398000FC3DFE3F9E3F1F3F1F3E1F3C1F3C1F3C18
:103990001F3C1F3C1F3C1F3C1F3C1F3C1F3C0000AA
:1039A0000000000000000000000000000000000017
:1039B00000000000F007FC1F3E3E1F3C1F7C0F78FC
:1039C0000F780F780F780F781F7C1F3C3E3EFC1F4E
:1039D000F0070000000000000000000000000000F0
:1039E0000000000000000000F83DFE3F3E3F1F3E8B
:1039F0000F3C0F3C0F3C0F3C0F3C0F3C1F3C1E3E4E
:103A00003E3FFC3FF83F003C003C003C003C003C9B
:103A1000000000000000000000000000EE07FE1F94
:103A20007E3E1E3C1E7C1E781E781E781E781E78F8
:103A30001E7C3E7C7E3EFE1FDE0F1E001E001E0012
:103A40001E001E000000000000000000000000003A
:103A50007F1FFF1FE71FC71F871F001F001F001FBB
:103A6000001F001F001F001F001F001F001F00007D
:103A70000000000000000000000000000000000046
:103A800000000000FC07FE1F0E1E003E003E003F2F
:103A9000E01FFC07FE003E001E001E003E3CFC3FF7
:103AA000F01F000000000000000000000000000007
:103AB0000000800780078007FF7FFF7F8007800767
:103AC00080078007800780078007800780078007BE
:103AD000C007FF03FF01000000000000000000001D
:103AE0000000000000000000000000001E3C1E3C22
:103AF0001E3C1E3C1E3C1E3C1E3C1E3C1E3C1E3CF6
:103B00003E3C7E3CFE3EFE1FDE0F0000000000003B
:103B100000000000000000000000000000000000A5
:103B200007F00F780F781E3C1E3C1E3E3C1E3C1ECC
:103B3000780F780FF00FF007F007E003E0030000C4
:103B40000000000000000000000000000000000075
:103B50000000000003F0E3F1E3F3E7F3F7F3F7F31A
:103B6000F77F777F7F7F7F7F7F7F3E3E3E3E3E3E7B
:103B70003E3E0000000000000000000000000000C9
:103B800000000000000000000F7C1E3E3C3E3C1F79
:103B9000F80FF007F007E003F007F807F80F7C1EB6
:103BA0003E3E1F3C1F7800000000000000000000A7
:103BB00000000000000000000000000007F80F787F
:103BC0000F7C1E3C1E3C3C1E3C1E3C1F780FF80F19
:103BD000F007F007E003E003C003C003C003800761
:103BE000800F007F000000000000000000000000C7
:103BF000FF3FFF3F1F003E007C00F800F001E003A4
:103C0000C007800F001F001E003CFF7FFF7F0000E9
:103C10000000000000000000FE01E003C003C0033C
:103C2000C003C003E001E001E001C001C003803F28
:103C3000803FC003C001E001E001E001C003C00318
:103C4000C003C003E003FE017E000000C001C0010C
:103C5000C001C001C001C001C001C001C001C0015C
:103C6000C001C001C001C001C001C001C001C0014C
:103C7000C001C001C001C001C001C001C0010000FD
:103C8000C03FE003E001E001E001E001C001C0034A
:103C9000C003C001E001FE00FE00E001C001C0035E
:103CA000C003C001E001E001E001E001E003C03F2A
:103CB000003F0000000000000000000000000000C5
:103CC00000000000000000000000073FC77FE7730E
:103CD000FFF17EF000000000000000000000000086
:103CE00000000000000000000000000000000000D4
:103CF00000000000000000000000000000000000C4
:103D00000000000000000000000000000000000CA7
:103D1000000C000C000C000C000C000C000C000C43
:103D2000000C000C0000000C000C00000000000063
:103D30000000001B001B001B001B001B00000000FC
:103D40000000000000000000000000000000000073
:103D50000000000000008019801980198019C07FC0
:103D6000C07F80190033C07FC07F00330033003331
:103D700000330000000000000000001E003F8075BE
:103D800080650074003C001E00078005806580652A
:103D90008075003F001E0004000400000000007059
:103DA00000D840D8C0D880D900730006000C801B12
:103DB000C036C066C046C006800300000000000098
:103DC0000000001E003F003300330033001E000CD3
:103DD000C03CC066806380618063C03E801C000080
:103DE000000000000000000C000C000C000C000C97
:103DF00000000000000000000000000000000000C3
:103E00000000000000000000800000010003000628
:103E100000060004000C000C000C000C000C000C50
:103E200000040006000600030001800000200010CE
:103E30000018000C000C0004000600060006000636
:103E4000000600060004000C000C00180010002002
:103E50000000000C002D003F001E00330000000099
:103E60000000000000000000000000000000000052
:103E700000000000000000000000000C000C000C1E
:103E8000000CC0FFC0FF000C000C000C000C000078
:103E90000000000000000000000000000000000022
:103EA0000000000000000000000000000000000012
:103EB0000000000C000C00040004000800000000DA
:103EC0000000000000000000000000000000001ED4
:103ED000001E0000000000000000000000000000C4
:103EE00000000000000000000000000000000000D2
:103EF00000000000000000000000000C000C0000AA
:103F0000000000000000000300030003000600069C
:103F100000060006000C000C000C000C0018001835
:103F200000180000000000000000001E003F0033E9
:103F3000806180618061806D806D80618061806161
:103F40000033003F001E00000000000000000006DB
:103F5000000E001E003600260006000600060006C1
:103F60000006000600060006000600000000000033
:103F70000000001E003F80738061806180010003AB
:103F80000006000C001800300060807F807F000079
:103F9000000000000000001C003E006300630003FE
:103FA000000E000E00038001800180618073003FDD
:103FB000001E00000000000000000006000E000EC1
:103FC000001E001E0016003600360066807F807FCF
:103FD0000006000600060000000000000000007F50
:103FE000007F006000600060006E007F80638001E1
:103FF000800180618073003F001E0000000000000F
:104000000000001E003F803380610060006E007F72
:1040100080738061806180618033003F001E0000FA
:10402000000000000000807F807F8001000300030B
:1040300000060006000C000C000C00080018001818
:1040400000180000000000000000001E003F806318
:10405000806180610021001E003F8061806180617D
:104060008061003F001E0000000000000000001EF4
:10407000003F00738061806180618073803F801D9C
:10408000800180610073003F001E000000000000FE
:1040900000000000000000000000000C000C000008
:1040A00000000000000000000000000C000C0000F8
:1040B0000000000000000000000000000000000000
:1040C000000C000C00000000000000000000000CCC
:1040D000000C0004000400080000000000000000C4
:1040E00080008003000E003800600038000E80035E
:1040F0008000000000000000000000000000000040
:10410000000000000000807F807F00000000807FB2
:10411000807F0000000000000000000000000000A0
:10412000000000000000000000400070001C0007BC
:1041300080010007001C007000400000000000002B
:10414000000000000000001F803FC071C060C00080
:10415000C00180030007000E000C000C0000000CE2
:10416000000C0000000000000000001E003F803135
:1041700080718063806F806D806D806F806700606C
:104180000032003E001C0000000000000000000E95
:10419000000E001B001B001B001B80318031803F84
:1041A000803F8031C060C060C0600000000000003F
:1041B0000000007C007E0063006300630063007EFB
:1041C000007E0063806180618063007F007E00006C
:1041D000000000000000001E003F80318061006090
:1041E0000060006000600060006080618031003F1E
:1041F000001E0000000000000000007C007F006343
:104200008063806180618061806180618061006322
:104210000063007E007C0000000000000000807F42
:10422000807F0060006000600060007F007F0060B1
:10423000006000600060807F807F00000000000060
:104240000000807F807F0060006000600060007F71
:10425000007F00600060006000600060006000009F
:10426000000000000000001E003F803180610060FF
:104270000060006080638063806180618031803F86
:10428000001E00000000000000008061806180616D
:10429000806180618061807F807F806180618061DA
:1042A0008061806180610000000000000000003F2C
:1042B000003F000C000C000C000C000C000C000C6B
:1042C000000C000C000C003F003F0000000000004C
:1042D0000000800180018001800180018001800157
:1042E00080018001806180618073003F001E0000BA
:1042F000000000000000C06080610063006600668E
:10430000006C0078007C006600660063806180615C
:10431000C06000000000000000000060006000605D
:10432000006000600060006000600060006000608D
:104330000060807F807F0000000000000000C071EE
:10434000C071C07BC07AC06AC06AC06EC064C06001
:10435000C060C060C060C060C060000000000000BD
:10436000000080718071807980798079806D806DA6
:10437000806D8065806780678067806380630000F0
:10438000000000000000001E003F003380618061DB
:104390008061806180618061806180610033003F65
:1043A000001E0000000000000000007E007F80630F
:1043B0008061806180618063007F007E00600060BA
:1043C0000060006000600000000000000000001EAF
:1043D000003F003380618061806180618061806125
:1043E000806580670033803F401E000000000000B1
:1043F0000000007E007F8063806180618063007FB9
:10440000007E00660063006380618061C060000020
:10441000000000000000000E001F803180310030DD
:104420000038001E00078003806180618031003FFA
:10443000001E0000000000000000C0FFC0FF000CD4
:10444000000C000C000C000C000C000C000C000C0C
:10445000000C000C000C0000000000000000806157
:104460008061806180618061806180618061806144
:10447000806180618073003F001E0000000000002A
:104480000000C060C060C060803180318031001B9E
:10449000001B001B001B000E000E000E000400009D
:1044A000000000000000C0C0C0C0C0C0C0C0C0C08C
:1044B000C0CC804C804C805E805280528073806182
:1044C00080610000000000000000C0C080608061CA
:1044D0000033003B001E000C000C001E001F003BC0
:1044E00080718061C0C00000000000000000C0C0FA
:1044F0008061806100330033001E001E000C000C40
:10450000000C000C000C000C000C0000000000006F
:104510000000803F803F8001000300030006000C84
:10452000000C0018001800300060807F807F0000C1
:1045300000000000000F000F000C000C000C000C2D
:10454000000C000C000C000C000C000C000C000C0B
:10455000000C000C000F000F0000001800180018DD
:10456000000C000C000C000C000600060006000603
:10457000000300030003000000000000001E001EF6
:1045800000060006000600060006000600060006FB
:10459000000600060006000600060006001E001EBB
:1045A0000000000C000C001E00120033003380617C
:1045B000806100000000000000000000000000001A
:1045C00000000000000000000000000000000000EB
:1045D00000000000000000000000000000000000DB
:1045E00000000000E0FF0000000000380018000C90
:1045F00000000000000000000000000000000000BB
:1046000000000000000000000000000000000000AA
:10461000000000000000001F803F80618001801FBB
:10462000803F80618063807FC03800000000000010
:1046300000000060006000600060006E007F80731A
:1046400080618061806180618073007F006E000006
:104650000000000000000000000000000000001E3C
:10466000003F807380610060006080618073003F64
:10467000001E000000000000000080018001800199
:104680008001801D803F80738061806180618061D6
:104690008073803F801D00000000000000000000CB
:1046A000000000000000001E003F00738061807F5A
:1046B000807F00608071003F001E0000000000004D
:1046C0000000C007C00F000C000C807F807F000C32
:1046D000000C000C000C000C000C000C000C000086
:1046E000000000000000000000000000801D803F6E
:1046F000807380618061806180618073803F801DF4
:1047000080018063007F003E000000600060006068
:104710000060006F807F8071806180618061806156
:1047200080618061806100000000000000000006E0
:10473000000600000000003E003E000600060006E5
:10474000000600060006000600060000000000004B
:104750000006000600000000003E003E00060006C5
:1047600000060006000600060006000600060046D9
:10477000007E003C0000006000600060006080611E
:1047800000630066006C007C00760063006380615B
:10479000C0600000000000000000003E003E000677
:1047A00000060006000600060006000600060006D9
:1047B00000060006000600000000000000000000E7
:1047C00000000000000080DDC0FFC0CEC0CCC0CC27
:1047D000C0CCC0CCC0CCC0CCC0CC0000000000001D
:1047E00000000000000000000000006F807F80716A
:1047F0008061806180618061806180618061000092
:104800000000000000000000000000000000001E8A
:10481000003F807380618061806180618073003FB0
:10482000001E00000000000000000000000000006A
:10483000006E007F80738061806180618061807321
:10484000007F006E006000600060006000000000FB
:1048500000000000801D803F807380618061806166
:1048600080618073803F801D800180018001800114
:10487000000000000000000000000067803F0039D9
:1048800000300030003000300030003000300000D8
:104890000000000000000000000000000000001EFA
:1048A000803F80610060007F803F80018061007FE9
:1048B000001E0000000000000000000000080018BA
:1048C0000018007F007F001800180018001800185A
:1048D0000018801F800F0000000000000000000092
:1048E0000000000000008061806180618061806163
:1048F000806180618063807F803D00000000000057
:1049000000000000000000000000C0608031803125
:104910008031001B001B001B000E000E0006000073
:10492000000000000000000000000000000080DD2A
:1049300080DD80DD005500550055007700770022AE
:104940000022000000000000000000000000000045
:104950000000806100330033001E000C000C001EBC
:104960000033003380610000000000000000000000
:104970000000000080618061803100330033001B43
:10498000001B001B000E000E000E001C007C0070BF
:1049900000000000000000000000C07FC07F800118
:1049A00000030006000C00180030C07FC07F00002C
:1049B00000000000800380070006000600060006D5
:1049C0000006000E001C001C000E0006000600067B
:1049D00000060006800780030006000600060006A9
:1049E0000006000600060006000600060006000697
:1049F0000006000600060006000600060038003C1F
:104A0000000C000C000C000C000C000E000700074E
:104A1000000E000C000C000C000C000C003C0038D8
:104A200000000000000000000000000000008038CE
:104A3000807F004700000000000000000000000030
:104A40000000000030313233343536373839616296
:104A5000636465666768696A6B6C6D6E6F707172AE
:104A6000737475767778797A00232D302B2000685F
:104A70006C4C00656667454647003031323334354B
:104A800036373839414243444546003031323334B9
:0C4A9000353637383961626364656600B2
:084A9C00B0B6FF7F010000002D
:044AA40031010008D4
:044AA8000D010008F4
:104AAC00010000001000000000127A00100000202D
:104ABC0000000000EC04002054050020BC05002080
:104ACC0000000000000000000000000000000000DA
:104ADC0000000000000000000000000000000000CA
:104AEC0000000000000000000000000000000000BA
:0C4AFC00000000000000000000000000AE
:04000005080018D502
:00000001FF
