:020000040800F2
:1000000000500020C1170008A1020008A302000848
:10001000A5020008A7020008A902000800000000CD
:10002000000000000000000000000000AB0200081B
:10003000AD02000800000000AF020008B102000895
:10004000091800080918000809180008091800080C
:100050000918000809180008B9020008C3020008BE
:1000600009180008091800080918000809180008EC
:1000700009180008091800080918000809180008DC
:1000800009180008091800080918000809180008CC
:1000900009180008091800080918000809180008BC
:1000A00009180008091800080918000809180008AC
:1000B000091800080918000809180008091800089C
:1000C000091800080918000809180008091800088C
:1000D000091800080918000809180008091800087C
:1000E0000918000809180008091800080000000095
:1000F0000000000000000000000000000000000000
:0C01000000000000000000005FF808F1A3
:10010C0010B5054C237833B9044B13B10448AFF345
:10011C0000800123237010BD3C0000200000000073
:10012C001C19000808B5034B1BB103490348AFF376
:10013C00008008BD00000000400000201C190008D1
:10014C00034B01221A60034A136801331360704792
:10015C00580000206000002072B6FEE700B591B098
:10016C002822002106A801F0A7FB0023019302938B
:10017C000393049305930223069301230A931023FC
:10018C000B9306A800F032F968B90F2301930021F4
:10019C00029103910491059101A800F059FB20B93B
:1001AC0011B05DF804FBFFF7D7FFFFF7D5FF000098
:1001BC0000B583B000F0CCF8FFF7D0FF01F0E8F801
:1001CC0001F004F901F026F901F058F901F08EFA6A
:1001DC00012001F0A3F901F0AFF90021084601F06C
:1001EC0065FA264B002200920ECB254801F046FA08
:1001FC0001F0A2F93CE0234B00221A60224C4FF490
:10020C000051204600F0FEFC322000F0C5F84FF4FF
:10021C000051204600F0F6FC322000F0BDF84FF4FF
:10022C000051204600F0EEFC322000F0B5F84FF4FF
:10023C000051204600F0E6FC642000F0ADF8134CB1
:10024C000A222146124B186801F0F1FA012001F044
:10025C0065F901F071F90021084601F027FA074B06
:10026C00002200920ECB204601F008FA01F064F94E
:10027C00044B1B68002BBED1E1E700BF6C190008D2
:10028C003419000858000020001001400000002024
:10029C0060000020FEE7FEE7FEE7FEE7FEE77047A2
:1002AC007047704708B500F065F808BD08B5012027
:1002BC0000F0B2FC08BD08B5022000F0ADFC08BD92
:1002CC0082B00E4B9A6942F001029A619A6902F06F
:1002DC0001020092009ADA6942F08052DA61DB691D
:1002EC0003F080530193019B054A536823F0E063AC
:1002FC0043F08063536002B0704700BF00100240AF
:10030C000000014010B504460E4B1A784FF47A7376
:10031C00B3FBF2F30C4A1068B0FBF3F000F0EEFC08
:10032C0068B90F2C01D901200AE0002221464FF0B8
:10033C00FF3000F0C5FC054B1C60002000E00120E4
:10034C0010BD00BF32000020380000203400002017
:10035C0008B5074A136843F010031360032000F03C
:10036C009DFC0F20FFF7CEFFFFF7AAFF002008BD72
:10037C0000200240034A1168034B1B780B441360A6
:10038C00704700BF5C00002032000020014B186851
:10039C00704700BF5C00002038B50446FFF7F6FF3D
:1003AC000546B4F1FF3F02D0044B1B781C44FFF709
:1003BC00EDFF401BA042FAD338BD00BF3200002035
:1003CC0082B0084B1B68084AA2FB03235B0A00FBA4
:1003DC0003F3019300BF019B5A1E0192002BF9D12C
:1003EC0002B0704738000020D34D6210002800F096
:1003FC00F18170B582B00446036813F0010F2CD064
:10040C00994B5B6803F00C03042B1DD0964B5B6877
:10041C0003F00C03082B12D06368B3F5803F41D076
:10042C00002B55D103F1804303F504331A6822F4F1
:10043C0080321A601A6822F480221A6037E08A4BE4
:10044C005B6813F4803FE7D0874B1B6813F4003FC5
:10045C0003D06368002B00F0BF81236813F0020FF8
:10046C0075D0814B5B6813F00C0F5FD07E4B5B68D3
:10047C0003F00C03082B54D02369002B00F08A8066
:10048C007A4B01221A60FFF781FF0546764B1B68F9
:10049C0013F0020F75D1FFF779FF401B0228F5D935
:1004AC0003209EE1704A136843F480331360636841
:1004BC0043B3FFF76BFF05466B4B1B6813F4003F10
:1004CC00CBD1FFF763FF401B6428F5D9032088E1EB
:1004DC00B3F5A02F09D0644B1A6822F480321A604D
:1004EC001A6822F480221A60E1E703F18043A3F535
:1004FC003C331A6842F480221A601A6842F4803243
:10050C001A60D4E7FFF742FF0546574B1B6813F4FC
:10051C00003FA2D0FFF73AFF401B6428F5D9032017
:10052C005FE1514B5B6813F4803FA5D14E4B1B68C8
:10053C0013F0020F03D02369012B40F04F814A4A7C
:10054C00136823F0F803616943EAC103136023685D
:10055C0013F0080F33D0A369002B5CD0434B01225E
:10056C00C3F88024FFF712FF05463F4B5B6A13F07C
:10057C00020F21D1FFF70AFF401B0228F5D90320F7
:10058C002FE1394A136823F0F803616943EAC10388
:10059C001360DCE7354B00221A60FFF7F7FE0546C7
:1005AC00314B1B6813F0020FD1D0FFF7EFFE401B4D
:1005BC000228F5D9032014E10120FFF701FF23687D
:1005CC0013F0040F00F09680274BDB6913F0805F6B
:1005DC0034D1254BDA6942F08052DA61DB6903F0E1
:1005EC0080530193019B0125214B1B6813F4807FE1
:1005FC0026D0E368012B3DD0002B53D103F180436F
:10060C0003F504331A6A22F001021A621A6A22F004
:10061C0004021A6233E0154B0022C3F88024FFF762
:10062C00B5FE0546104B5B6A13F0020FC7D0FFF7FF
:10063C00ADFE401B0228F5D90320D2E00025D3E7FC
:10064C000B4A136843F480731360FFF79FFE064652
:10065C00074B1B6813F4807FCBD1FFF797FE801BF1
:10066C006428F5D90320BCE000100240000042428F
:10067C00007000405F4A136A43F001031362E368A1
:10068C0033B3FFF783FE06465A4B1B6A13F0020F77
:10069C002FD1FFF77BFE801B41F288339842F3D9B0
:1006AC0003209EE0052B09D0524B1A6A22F001025E
:1006BC001A621A6A22F004021A62E0E74D4B1A6AB7
:1006CC0042F004021A621A6A42F001021A62D6E778
:1006DC00FFF75CFE0646474B1B6A13F0020F08D06F
:1006EC00FFF754FE801B41F288339842F3D9032064
:1006FC0077E0E5B9E369002B72D03E4A526802F00C
:10070C000C02082A56D0022B17D03B4B00221A663B
:10071C00FFF73CFE0446374B1B6813F0007F47D0B5
:10072C00FFF734FE001B0228F5D9032059E0314AAB
:10073C00D36923F08053D361DCE72F4B00221A6678
:10074C00FFF724FE05462B4B1B6813F0007F06D0E9
:10075C00FFF71CFE401B0228F5D9032041E0236A59
:10076C00B3F5803F1AD023494B6823F47413226AE3
:10077C00606A024313434B601F4B01221A66FFF75A
:10078C0005FE04461B4B1B6813F0007F0ED1FFF7D0
:10079C00FDFD001B0228F5D9032022E0154A536801
:1007AC0023F40033A1680B435360DCE7002018E00E
:1007BC00002016E0012B16D00E4B5B6803F4803141
:1007CC00226A914211D103F47013626A93420ED1E2
:1007DC00002006E001207047012002E0012000E02B
:1007EC00002002B070BD0120FBE70120F9E70120D9
:1007FC00F7E700BF00100240000042420F4B5B685D
:10080C0003F00C02082A01D00D487047C3F3834251
:10081C000C49885C13F4803F0BD0084B5B68C3F326
:10082C004043094AD35C064A02FB00F0B0FBF3F0EC
:10083C007047064B03FB00F0704700BF00100240EE
:10084C0000127A00441900084019000800093D0004
:10085C00002800F0A08070B50D460446524B1B6872
:10086C0003F007038B420BD24F4A136823F00703A4
:10087C000B431360136803F007038B4240F08D8029
:10088C00236813F0020F17D013F0040F04D0474A5B
:10089C00536843F4E0635360236813F0080F04D0EB
:1008AC00424A536843F460535360404A536823F000
:1008BC00F003A1680B435360236813F0010F31D090
:1008CC006368012B20D0022B25D0384A126812F015
:1008DC00020F64D035494A6822F0030213434B607F
:1008EC00FFF754FD0646314B5B6803F00C0362685E
:1008FC00B3EB820F16D0FFF749FD801B41F2883312
:10090C009842F0D9032045E0284A126812F4003FBF
:10091C00E0D101203EE0254A126812F0007FD9D1C7
:10092C00012037E0204B1B6803F00703AB420AD9C8
:10093C001D4A136823F007032B431360136803F05D
:10094C000703AB422DD1236813F0040F06D0174ACE
:10095C00536823F4E063E1680B435360236813F09E
:10096C00080F07D0114A536823F46053216943EAF6
:10097C00C1035360FFF742FF0C4B5B68C3F30313D7
:10098C000B4AD35CD8400B4B18600B4B1868FFF725
:10099C00B9FC002070BD012070470120FAE701204E
:1009AC00F8E70120F6E700BF0020024000100240EB
:1009BC005C1900083800002034000020014B186836
:1009CC00704700BF3800002008B5FFF7F7FF044B55
:1009DC005B68C3F30223034AD35CD84008BD00BF55
:1009EC00001002405419000870B582B00024A446CF
:1009FC00A1E07E4DAB4214D00CD8A5F58015AB42CE
:100A0C000FD005F57025AB420BD0A5F58015AB4288
:100A1C0010D106E0764DAB4203D005F58035AB42E4
:100A2C0008D18B68002B50D0012B49D0426108248F
:100A3C0000E0CC68BEF1FF0F49D806464FEA8C02A5
:100A4C0033680F25954023EA050304FA02F2134399
:100A5C0033604B6813F0805F6BD0664B9A6942F041
:100A6C0001029A619B6903F001030193019B4FEA18
:100A7C009C02951C604B53F825600CF00305AD00EF
:100A8C000F23AB4026EA03065C4B984226D003F5B5
:100A9C008063984200F08C8003F58063984200F0EC
:100AAC00898003F58063984216D0042317E0CC6844
:100ABC000434BFE7CC680834BCE7CC680C34B9E725
:100ACC0002610824B6E70024B4E70424B2E7061D4B
:100ADC00ACF108029200B3E7032300E00023AB4023
:100AEC0033430232444D45F822304B6813F4801FD7
:100AFC0062D0434A936843EA0E0393604B6813F445
:100B0C00001F5FD03E4AD36843EA0E03D3604B68A4
:100B1C0013F4003F5CD03A4A536843EA0E03536027
:100B2C004B6813F4803F59D0354A136843EA0E03DF
:100B3C0013600CF1010C0B6833FA0CF254D0012247
:100B4C0002FA0CF203EA020E32EA0303F1D14B680B
:100B5C00122B3FF64EAF122B3FF66CAF01A555F89A
:100B6C0023F000BF2F0A00083F0A0008C10A000842
:100B7C00D30A0008410A0008410A0008410A00088B
:100B8C00410A0008410A0008410A0008410A00080D
:100B9C00410A0008410A0008410A0008410A0008FD
:100BAC00410A0008410A0008BB0A0008C70A0008ED
:100BBC00012394E7022392E7114A936823EA0E0378
:100BCC0093609BE70E4AD36823EA0E03D3609EE73B
:100BDC000B4A536823EA0E035360A1E7084A1368D3
:100BEC0023EA0E031360A4E702B070BD00002210CC
:100BFC0000003110001002400000014000080140CC
:100C0C0000040140C36801EA030221EA030141EA3E
:100C1C00024101617047000008B5054B5B69034256
:100C2C0000D108BD024B5861FFF78AFAF9E700BF03
:100C3C0000040140002808DB0901C9B200F1604042
:100C4C0000F5614080F80013704700F00F000901B7
:100C5C00C9B2014B1954704714ED00E000B500F017
:100C6C000700C0F1070CBCF1040F28BF4FF0040CB7
:100C7C00031D062B0FD9C31E4FF0FF3E0EFA0CF0CE
:100C8C0021EA000199400EFA03FE22EA0E0241EA23
:100C9C0002005DF804FB0023EEE70000074AD3686E
:100CAC0023F4E0631B041B0C000200F4E06003431C
:100CBC0043F0BF6343F40033D360704700ED00E0B2
:100CCC0010B50446054BD868C0F30220FFF7C6FFE9
:100CDC0001462046FFF7AEFF10BD00BF00ED00E05F
:100CEC00002807DB00F01F02400901239340024A51
:100CFC0042F82030704700BF00E100E00138B0F14D
:100D0C00807F0BD24FF0E0235861054AF02182F826
:100D1C0023100020986107221A6170470120704748
:100D2C0000ED00E003685A6912F4806F01D10020D5
:100D3C0070476FF480625A6100230363202280F8AD
:100D4C003D2080F83E30026C42F00402026480F8D0
:100D5C003C30012070472DE9F04106460C46174601
:100D6C0098463BE0FFF712FB069BC01A404502D8A1
:100D7C00B8F1000F32D1012D18D033689B6924EAE9
:100D8C0003039BB2B3FA83F35B099F4226D1002382
:100D9C003363202286F83D2086F83E30326C42F0D8
:100DAC002002326486F83C30012027E033685B690E
:100DBC0024EA03039BB2B3FA83F35B09E5E73368D8
:100DCC005B6924EA030C1FFA8CFCBCFA8CFC4FEA1E
:100DDC005C1C674511D1B8F1FF3FC3D1C4F3074583
:100DEC00012DECD033689B6924EA030C1FFA8CFCB0
:100DFC00BCFA8CFC4FEA5C1CEBE70020BDE8F081F0
:100E0C002DE9F84305460E469046994653E01A687C
:100E1C0042F400721A602B686FF480625A610023EE
:100E2C002B63202285F83D2085F83E302A6C42F059
:100E3C0004022A6485F83C3001204AE0FFF7A6FA48
:100E4C00A0EB0900404502D8B8F1000F33D1012FB7
:100E5C0017D02B689B6926EA03039BB2003B18BF93
:100E6C00012343B300232B63202285F83D2085F812
:100E7C003E302A6C42F020022A6485F83C30012076
:100E8C0027E02B685B6926EA03039BB2003B18BF83
:100E9C000123E6E72B689C6926EA0404A4B2003C13
:100EAC0018BF0124A4B12B685A6912F4806FAED11B
:100EBC00B8F1FF3FC2D1C6F30747012FEAD12B6827
:100ECC005C6926EA0404A4B2003C18BF0124E9E7DB
:100EDC000020BDE8F88370B504460D46164623681D
:100EEC005B6913F0800F21D12046FFF71BFFF8B987
:100EFC00B5F1FF3FF3D0FFF749FA801BA84201D8A8
:100F0C00002DECD123685B6913F0800FE7D100232F
:100F1C002363202284F83D2084F83E30226C42F07A
:100F2C002002226484F83C30012000E0002070BDD7
:100F3C000120FCE72DE9F04385B004460D469146AF
:100F4C001F46DDF830800D9E0368196841F48071EE
:100F5C0019600096434600224FF00111FFF7FBFE8B
:100F6C0060B9236805F0FE051D61334642462649EB
:100F7C002046FFF745FF68B1012008E023681B6895
:100F8C0013F4807F02D04FF400732364032005B068
:100F9C00BDE8F0830023039323685A6903929B698D
:100FAC000393039B324641462046FFF794FF30B92A
:100FBC00012F0FD123685FFA89F61E61E7E7236CD6
:100FCC00042B01D00120E2E72268136843F400737C
:100FDC001360F7E723684FEA19221A61324641463B
:100FEC002046FFF778FF20B923685FFA89F61E6167
:100FFC00CDE7236C042B01D00120C8E722681368CD
:10100C0043F400731360F7E70200010070B5044667
:10101C000D46164623685B6913F0040F21D1204658
:10102C00FFF780FEF8B9B5F1FF3FF3D0FFF7AEF94B
:10103C00801BA84201D8002DECD123685B6913F00A
:10104C00040FE7D100232363202284F83D2084F889
:10105C003E30226C42F02002226484F83C300120A5
:10106C0000E0002070BD0120FCE77047002800F074
:10107C00CC8070B5044690F83D30002B77D02423FB
:10108C0084F83D302268136823F001031360226852
:10109C00136843F4004313602268136823F400437D
:1010AC001360FFF791FC62685A4B9A4264D85A4B12
:1010BC0098428CBF00230123002B40F0A880574995
:1010CC00A1FB00318B0C25686A6822F03F0242EAD2
:1010DC0091426A6021680A6A22F03F0266684D4DAF
:1010EC00AE424FD8013313430B622168CA6922F414
:1010FC004F4222F0FF026568464B9D424CD8431E7E
:10110C006D00B3FBF5F3013340F6FC70034278D06D
:10111C00C3F30B031A43CA6121680B6823F0C003A5
:10112C00E269206A024313430B6021688B6823F445
:10113C00034323F0FF032269E068024313438B60EF
:10114C002168CB6823F0FF036269A0690243134353
:10115C00CB602268136843F0010313600020206405
:10116C00202384F83D30206384F83E0070BD80F865
:10117C003C30FFF77AFF82E7294B98428CBF002363
:10118C00012399E74FF4967505FB03F3254DA5FB59
:10119C0003539B090133A6E7A668BEB9431E05EBB2
:1011AC00450CB3FBFCF30133C3F30B03B3FA83F32A
:1011BC005B0943BBC6B9431E05EB4505B3FBF5F311
:1011CC000133C3F30B0343F40043A3E7431E05EBC6
:1011DC00850C0CEB8C0CB3FBFCF30133C3F30B034E
:1011EC00B3FA83F35B09E4E7431E05EB850505EBD6
:1011FC008505B3FBF5F30133C3F30B0343F4404311
:10120C0088E7042386E7012384E701207047012047
:10121C00ACE700BFA08601007F841E0083DE1B4369
:10122C00FF083D00D34D62102DE9F04383B0044616
:10123C000F46904699460C9EFFF7A8F8054694F881
:10124C003D00C0B2202803D0022003B0BDE8F083DB
:10125C000095192301224B492046FFF77CFD0028FD
:10126C0040F0898094F83C30012B00F086800123FB
:10127C0084F83C3023681A6812F0010F03D11A6805
:10128C0042F001021A602268136823F400631360B1
:10129C00212384F83D30402384F83E30002323641E
:1012AC000A9B6362BDF82C306385638D2385364BB6
:1012BC00E362019500964B46424639462046FFF7BD
:1012CC0039FE00285BD1238D002B35D02A463146C0
:1012DC002046FFF700FE20BB626A236812781A6171
:1012EC00626A531C6362218D013989B22185638D39
:1012FC009BB2013B9BB263852368586910F0040FC5
:10130C00E1D00029DFD052781A61636A013363623D
:10131C00238D013B2385638D9BB2013B9BB263857F
:10132C00D1E7236C042B01D001208EE722681368CF
:10133C0043F400731360F7E72A4631462046FFF763
:10134C0065FE50B1236C042B01D001207DE722688F
:10135C00136843F400731360F7E72268136843F4CF
:10136C0000731360202384F83D30002384F83E3052
:10137C0084F83C3069E7022067E7022065E701202A
:10138C0063E700BF020010000000FFFF7047000081
:10139C0000B587B00B4B9A6942F010029A619B69B9
:1013AC0003F010030193019B4FF4005302930123AC
:1013BC0003930223059302A90348FFF715FB07B01B
:1013CC005DF804FB001002400010014000B587B02E
:1013DC000D4B9A6942F004029A619B6903F0040375
:1013EC000193019B01230293084A03920493022365
:1013FC00059302A90648FFF7F7FA0620FFF770FCE1
:10140C0007B05DF804FB00BF001002400000211083
:10141C000008014000B585B002230093064A0192F2
:10142C000393029369460548FFF7DEFA0720FFF79E
:10143C0057FC05B05DF804FB0000111000080140DA
:10144C0000B587B00B4B9A6942F008029A619B6910
:10145C0003F008030193019BC0230293122303930F
:10146C000323059302A90448FFF7BEFA07B05DF801
:10147C0004FB00BF00100240000C014000B583B01B
:10148C000D4BDA6942F40012DA61DB6903F40013E4
:10149C000193019BFFF7D4FF0848094B0360094BEC
:1014AC00436000238360C3604FF480430361FFF704
:1014BC00DDFD03B05DF804FB001002406400002069
:1014CC0000540040A086010000B587B08DF81700CD
:1014DC004FF0FF330293012301930DF11702009299
:1014EC00002278210248FFF79FFE07B05DF804FB4D
:1014FC006400002000B585B04FF0FF33029389B231
:10150C00019100900123402278210348FFF78CFEC3
:10151C0005B05DF804FB00BF6400002008B530B9CD
:10152C0000214FF48062034800F0C6F908BDFF218A
:10153C00F7E700BFC000002010B5002412E0A4F1B2
:10154C005000C0B2FFF7C0FF0020FFF7BDFF102016
:10155C00FFF7BAFF8021054800EBC410FFF7CAFF64
:10156C000134E4B2072CEAD910BD00BFC000002042
:10157C0010F0800F1ED13F291CD810B4012A0ED0B8
:10158C00CB0800EBC3100C4C225C01F007010123CB
:10159C008B40DB435BB21340235410BC7047CB0829
:1015AC0000EBC310044C235C01F007018A40134389
:1015BC002354F2E7704700BFC00000202DE9F0472C
:1015CC0084B0814604A800E90E009DF83080A9F192
:1015DC002003DBB25E2B46D8039B83B1A9F120021A
:1015EC009E5C254B1B883344802B40DC224B5B8854
:1015FC009DF805A05344402B3BDC002522E09DF8D0
:10160C000460EEE71C4B1888598829442044B8FA2A
:10161C0088F25209C9B2C0B2FFF7AAFF0134A64240
:10162C000FD907FA04F313F4004FEBD0124B1888C0
:10163C005988294420444246C9B2C0B2FFF798FFEA
:10164C00ECE70135AA4508D9A9F1200303FB0A539D
:10165C00029A32F813700024E1E7074B1A881644FB
:10166C001E80484600E0002004B0BDE8F087002052
:10167C00FAE70020F8E700BFB800002030B587B0CB
:10168C00044606A800E90E009DF8285000E001343D
:10169C00207848B1009506AB13E90E00FFF78EFFDA
:1016AC00034620788342F2D007B030BD014B18803E
:1016BC0059807047B800002010B504468120FFF710
:1016CC0003FF2046FFF700FF10BD000008B530B146
:1016DC00054B01225A71AF20FFF7F6FE08BD024BF5
:1016EC0000225A71AE20F7E7B800002008B564203C
:1016FC00FEF752FE0020FFF7E9FF2020FFF7E4FE83
:10170C000020FFF7E1FEB020FFF7DEFEC820FFF758
:10171C00DBFE0020FFF7D8FE1020FFF7D5FE40209F
:10172C00FFF7D2FEFF20FFF7C7FFA120FFF7CCFE8B
:10173C00A620FFF7C9FEA820FFF7C6FE3F20FFF743
:10174C00C3FEA420FFF7C0FED320FFF7BDFE002090
:10175C00FFF7BAFED520FFF7B7FEF020FFF7B4FE77
:10176C00D920FFF7B1FE2220FFF7AEFEDA20FFF7FB
:10177C00ABFE1220FFF7A8FEDB20FFF7A5FE202012
:10178C00FFF7A2FE8D20FFF79FFE1420FFF79CFEB3
:10179C000120FFF79BFF0020FFF7C0FEFFF7CCFEF8
:1017AC00034B00221A805A8001221A7108BD00BF17
:1017BC00B8000020FFF7EAFD0B480C490C4A002347
:1017CC0002E0D458C4500433C4188C42F9D3094AEB
:1017DC00094C002301E013600432A242FBD300F059
:1017EC0073F8FEF7E5FC7047000000203C00002079
:1017FC00042700083C000020C0040020FEE7931ED4
:10180C00222B10B50C4604D900231C460B70204625
:10181C0010BD0A2A09D1002807DA2D230B700121EB
:10182C004042214400F006F8F1E70021F9E7FFF708
:10183C00E6BF0000F0B58BB005460B466E461D4C5E
:10184C0004F1200C374620686168083403C76445EE
:10185C003E46F7D1217920683971911E22293860D2
:10186C004FF0000104D919700B4618460BB0F0BDAF
:10187C00581E8446B5FBF2F702FB175628366E4409
:10188C0016F8286C0C460CF8016F2E46B2423D46F9
:10189C0001F10101EED900225A541919A51AAA42D4
:1018AC00E3DA10F8015F0E780132067001F8015985
:1018BC00F4E700BFD426000803460244934200D14B
:1018CC00704703F8011BF9E770B500260C4D0D4C61
:1018DC00641BA410A64209D100F01AF800260A4D88
:1018EC000A4C641BA410A64205D170BD55F8043BEC
:1018FC0098470136EEE755F8043B98470136F2E776
:10190C00FC260008FC260008FC260008002700081E
:10191C00F8B500BFF8BC08BC9E467047F8B500BFD0
:08192C00F8BC08BC9E467047A0
:101934004F4C4544204F4B210000000001020000A1
:1019440002030405060708090A0B0C0D0E0F1010FC
:101954000000000001020304000000000000000079
:1019640001020304060708090B1200007819000895
:101974000000000000000000000000000000000063
:101984000000000000000000000000000000000053
:1019940000000000000000000000000C000C000C1F
:1019A400000C000C000C000C000C000C000C000CD3
:1019B4000000000C000C0000000000000000001BF0
:1019C400001B001B001B001B0000000000000000A7
:1019D4000000000000000000000000000000000003
:1019E40000008019801980198019C07FC07F801978
:1019F4000033C07FC07F0033003300330033000066
:101A0400000000000000001E003F80758065007427
:101A1400003C001E00078005806580658075003FDE
:101A2400001E0004000400000000007000D840D82C
:101A3400C0D880D900730006000C801BC036C06675
:101A4400C046C00680030000000000000000001E25
:101A5400003F003300330033001E000CC03CC0665E
:101A6400806380618063C03E801C00000000000031
:101A74000000000C000C000C000C000C0000000026
:101A84000000000000000000000000000000000052
:101A940000000000800000010003000600060004AE
:101AA400000C000C000C000C000C000C00040006E0
:101AB4000006000300018000002000100018000C44
:101AC400000C0004000600060006000600060006DE
:101AD4000004000C000C0018001000200000000C92
:101AE400002D003F001E0033000000000000000035
:101AF40000000000000000000000000000000000E2
:101B0400000000000000000C000C000C000CC0FFE2
:101B1400C0FF000C000C000C000C000000000000D2
:101B240000000000000000000000000000000000B1
:101B34000000000000000000000000000000000C95
:101B4400000C000400040008000000000000000075
:101B540000000000000000000000001E001E000045
:101B64000000000000000000000000000000000071
:101B74000000000000000000000000000000000061
:101B8400000000000000000C000C00000000000039
:101B94000000000300030003000600060006000620
:101BA400000C000C000C000C0018001800180000B9
:101BB400000000000000001E003F003380618061CF
:101BC4008061806D806D8061806180610033003F41
:101BD400001E00000000000000000006000E001EB1
:101BE4000036002600060006000600060006000671
:101BF4000006000600060000000000000000001EB1
:101C0400003F807380618061800100030006000C46
:101C1400001800300060807F807F0000000000001A
:101C24000000001C003E006300630003000E000E71
:101C340000038001800180618073003F001E00006A
:101C44000000000000000006000E000E001E001E32
:101C54000016003600360066807F807F000600068E
:101C640000060000000000000000007F007F00600C
:101C740000600060006E007F8063800180018061ED
:101C84008073003F001E0000000000000000001EE2
:101C9400003F803380610060006E007F807380614C
:101CA400806180618033003F001E0000000000005E
:101CB4000000807F807F800100030003000600068F
:101CC400000C000C000C000800180018001800009C
:101CD400000000000000001E003F806380618061FE
:101CE4000021001E003F8061806180618061003FAF
:101CF400001E0000000000000000001E003F0073F2
:101D04008061806180618073803F801D800180617B
:101D14000073003F001E00000000000000000000EF
:101D2400000000000000000C000C00000000000097
:101D3400000000000000000C000C00000000000087
:101D4400000000000000000000000000000C000C77
:101D540000000000000000000000000C000C000463
:101D64000004000800000000000000008000800360
:101D7400000E003800600038000E80038000000070
:101D8400000000000000000000000000000000004F
:101D94000000807F807F00000000807F807F000043
:101DA400000000000000000000000000000000002F
:101DB4000000000000400070001C000780010007C4
:101DC400001C007000400000000000000000000043
:101DD4000000001F803FC071C060C000C0018003CC
:101DE4000007000E000C000C0000000C000C0000AA
:101DF400000000000000001E003F803180718063FD
:101E0400806F806D806D806F806700600032003E5F
:101E1400001C0000000000000000000E000E001B6B
:101E2400001B001B001B80318031803F803F8031CC
:101E3400C060C060C0600000000000000000007CC2
:101E4400007E0063006300630063007E007E006325
:101E5400806180618063007F007E000000000000DC
:101E64000000001E003F803180610060006000605F
:101E740000600060006080618031003F001E00004F
:101E8400000000000000007C007F0063806380612C
:101E94008061806180618061806100630063007E95
:101EA400007C0000000000000000807F807F006054
:101EB400006000600060007F007F006000600060E0
:101EC4000060807F807F0000000000000000807FB1
:101ED400807F0060006000600060007F007F006021
:101EE400006000600060006000600000000000000E
:101EF4000000001E003F80318061006000600060CF
:101F040080638063806180618031803F001E0000B7
:101F14000000000000008061806180618061806158
:101F24008061807F807F8061806180618061806169
:101F340080610000000000000000003F003F000C32
:101F4400000C000C000C000C000C000C000C000C2D
:101F5400000C003F003F0000000000000000800172
:101F64008001800180018001800180018001800165
:101F7400806180618073003F001E0000000000004B
:101F84000000C0608061006300660066006C007839
:101F9400007C00660066006380618061C0600000B0
:101FA400000000000000006000600060006000604D
:101FB4000060006000600060006000600060807F7E
:101FC400807F0000000000000000C071C071C07B71
:101FD400C07AC06AC06AC06EC064C060C060C060BD
:101FE400C060C060C060000000000000000080719C
:101FF4008071807980798079806D806D806D806555
:102004008067806780678063806300000000000051
:102014000000001E003F00338061806180618061A8
:1020240080618061806180610033003F001E000098
:10203400000000000000007E007F806380618061FA
:1020440080618063007F007E00600060006000604B
:1020540000600000000000000000001E003F00338C
:10206400806180618061806180618061806580675A
:102074000033803F401E0000000000000000007E8E
:10208400007F8063806180618063007F007E0066E2
:102094000063006380618061C06000000000000094
:1020A4000000000E001F8031803100300038001E17
:1020B40000078003806180618031003F001E0000C2
:1020C400000000000000C0FFC0FF000C000C000C6A
:1020D400000C000C000C000C000C000C000C000C9C
:1020E400000C00000000000000008061806180613D
:1020F40080618061806180618061806180618061D4
:102104008073003F001E0000000000000000C0605B
:10211400C060C060803180318031001B001B001B17
:10212400001B000E000E000E000400000000000062
:102134000000C0C0C0C0C0C0C0C0C0C0C0CC804CC3
:10214400804C805E80528052807380618061000088
:10215400000000000000C0C0806080610033003BCC
:10216400001E000C000C001E001F003B80718061EB
:10217400C0C00000000000000000C0C08061806199
:1021840000330033001E001E000C000C000C000C79
:10219400000C000C000C0000000000000000803F58
:1021A400803F8001000300030006000C000C0018AF
:1021B400001800300060807F807F00000000000075
:1021C400000F000F000C000C000C000C000C000CA5
:1021D400000C000C000C000C000C000C000C000C9B
:1021E400000F000F0000001800180018000C000C6D
:1021F400000C000C000600060006000600030003A5
:102204000003000000000000001E001E000600067F
:10221400000600060006000600060006000600068A
:102224000006000600060006001E001E0000000C4A
:10223400000C001E00120033003380618061000036
:10224400000000000000000000000000000000008A
:10225400000000000000000000000000000000007A
:10226400000000000000000000000000000000006A
:10227400E0FF0000000000380018000C000000001F
:10228400000000000000000000000000000000004A
:10229400000000000000000000000000000000003A
:1022A4000000001F803F80618001801F803F8061AB
:1022B4008063807FC03800000000000000000060E0
:1022C400006000600060006E007F80738061806148
:1022D400806180618073007F006E00000000000058
:1022E40000000000000000000000001E003F80739A
:1022F40080610060006080618073003F001E000008
:102304000000000000008001800180018001801D28
:10231400803F807380618061806180618073803FD1
:10232400801D00000000000000000000000000000C
:102334000000001E003F00738061807F807F00608A
:102344008071003F001E0000000000000000C00774
:10235400C00F000C000C807F807F000C000C000C70
:10236400000C000C000C000C000C0000000000002D
:102374000000000000000000801D803F8073806129
:102384008061806180618073803F801D80018063F3
:10239400007F003E00000060006000600060006F8D
:1023A400807F8071806180618061806180618061F3
:1023B400806100000000000000000006000600002C
:1023C4000000003E003E000600060006000600066F
:1023D40000060006000600000000000000060006DB
:1023E40000000000003E003E000600060006000655
:1023F400000600060006000600060046007E003CBB
:10240400000000600060006000608061006300669E
:10241400006C007C0076006300638061C060000093
:10242400000000000000003E003E0006000600061A
:102434000006000600060006000600060006000668
:102444000006000000000000000000000000000082
:10245400000080DDC0FFC0CEC0CCC0CCC0CCC0CC9E
:10246400C0CCC0CCC0CC00000000000000000000C4
:10247400000000000000006F807F80718061806137
:1024840080618061806180618061000000000000E3
:1024940000000000000000000000001E003F8073E8
:1024A40080618061806180618073003F001E000054
:1024B400000000000000000000000000006E007F2B
:1024C400807380618061806180618073007F006EB1
:1024D4000060006000600060000000000000000078
:1024E400801D803F80738061806180618061807322
:1024F400803F801D80018001800180010000000078
:102504000000000000000067803F00390030003008
:1025140000300030003000300030000000000000C7
:1025240000000000000000000000001E803F8061E9
:102534000060007F803F80018061007F001E0000FA
:102544000000000000000000000800180018007FD0
:10255400007F001800180018001800180018801FC9
:10256400800F0000000000000000000000000000D8
:102574000000806180618061806180618061806130
:102584008063807F803D00000000000000000000A8
:10259400000000000000C060803180318031001BE9
:1025A400001B001B000E000E0006000000000000CF
:1025B4000000000000000000000080DD80DD80DD00
:1025C40000550055005500770077002200220000D6
:1025D4000000000000000000000000000000806116
:1025E40000330033001E000C000C001E00330033C7
:1025F40080610000000000000000000000000000F6
:1026040080618061803100330033001B001B001B9C
:10261400000E000E000E001C007C00700000000084
:10262400000000000000C07FC07F8001000300069E
:10263400000C00180030C07FC07F000000000000C4
:102644008003800700060006000600060006000E50
:10265400001C001C000E0006000600060006000612
:102664008007800300060006000600060006000638
:102674000006000600060006000600060006000626
:1026840000060006000600060038003C000C000CA2
:10269400000C000C000C000E00070007000E000CDC
:1026A400000C000C000C000C003C00380000000082
:1026B400000000000000000000008038807F004718
:1026C4000000000000000000000000000000000006
:1026D4003031323334353637383961626364656694
:1026E4006768696A6B6C6D6E6F70717273747576FE
:0826F4007778797A00000000FC
:0426FC0031010008A0
:042700000D010008BF
:1027040048656C6C6F0000000000000000000000D1
:1027140000000000000000000000000000000000B5
:1027240000000000000000000000000000000000A5
:0C273400000001001000000000127A00FC
:04000005080017C117
:00000001FF
